:100000000C945D000C94910D0C94910D0C94910D39
:100010000C94910D0C94910D0C94910D0C94910DE8
:100020000C941F060C949B0A0C94910D0C94170AC7
:100030000C94430A0C946F0A0C9433090C94910DA0
:100040000C94C70A0C94F30A0C94910D0C94910D26
:100050000C94910D0C94910D0C94910D0C94910DA8
:100060000C9422070C94910D0C94EB090C94BF098D
:100070000C94910D0C944C080C94910D0C94910DD2
:100080000C94910D0C94910D0C9401090C94910D0C
:10009000600060028060026035001B6E6035606346
:1000A000806063606B001BA1606B60818060816019
:1000B00085001BA9608560878000809101108F7C7E
:1000C0008060806898ED94BF8093011011241FBE5A
:1000D000CFEFCDBFDFE7DEBFE0E9F0E040E017C0E3
:1000E000B591A59135912591059107FD0CC095918C
:1000F0008591EF01F92FE82F05900D92A217B30714
:10010000D9F7FE0104C01D92A217B307E1F7E93B3E
:10011000F40731F70E94BD0C0C945C0DF894FFCFEE
:1001200025733A2025752E25303275560A0D00525A
:10013000415720524553554C543A202575200A000A
:10014000494E5445524E414C20564444004241547D
:06015000545F313256003D
:10015600AEE0B0E0E1EBF0E00C94480C4C016B0132
:1001660019821A828FEF9FEF8B839C831D821E82DA
:100176004F83588729873A87A12CB12CD6016D90D9
:100186007C90F301EA0DFB1D808181110FC0D60121
:10019600ED93FC938081853209F0D3C13F01BFEF17
:1001A6006B1A7B0AF6016082718219C0853279F377
:1001B600B401082E000C990B0E9470074FEFA41A89
:1001C600B40ADCCF8C32ACF08D32F9F489819A8195
:1001D600816089839A833196D601ED93FC93D6018B
:1001E600ED91FC9180818B3269F789819A818460D7
:1001F600F0CF803221F489819A818860EACF8332F8
:1002060051F489819A818061E4CF803321F4898118
:100216009A818260DECFB701C6010E9491098D8363
:100226009E8397FF0BC029813A81B1E02B27298352
:100236003A839195819591098D839E8389819A81CF
:1002460080FF03C08D7F89839A83D601ED91FC914F
:10025600119780818E3249F43196ED93FC93B70164
:10026600C6010E9491098B839C83C6010E94B70B2D
:10027600582ED601ED91FC918081082E000C990B29
:100286000E94780D893609F443C084F4833609F454
:1002960002C134F4853209F427C18136E1F030C158
:1002A6008436B1F188360CF4D9C02AC1803709F4F6
:1002B6009AC03CF48E3609F4BCC08F3609F461C08E
:1002C6001FC1853709F440C0883709F476C08337E3
:1002D60009F016C1F3C0652D70E0A701CE010B969B
:1002E6000E940000892B09F426C1D601ED91FC91EC
:1002F6001197CF0101968D939C932081AE01455FA6
:100306005F4FBE016F5F7F4FC4010E94000010C1A6
:10031600652D70E0970141E050E0CE010B960E94FA
:100326005205892B09F407C1F60180819181019656
:1003360080839183AE01455F5F4FBE016F5F7F4F44
:10034600C4010E94E004F4C0652D70E0970140E00E
:1003560050E0CE010B960E945205892B09F4EBC0A2
:10036600D6018D919C91119701968D939C93AE0128
:10037600455F5F4FBE016F5F7F4FC4010E94050856
:10038600D7C0652D70E0970140E050E0CE010B9696
:100396000E945205892B09F4CEC0F6018081918115
:1003A600019680839183AE01455F5F4FBE016F5F0B
:1003B6007F4FC4010E947B06BBC0652D70E097018C
:1003C60040E050E0CE010B960E945205892B09F4BD
:1003D600B2C0D601ED91FC911197CF0101968D9394
:1003E6009C9320811CC0970140E050E060EF70E0D4
:1003F600CE010B960E945205892B09F49CC0F6018A
:10040600808191810196808391838B859C85892B40
:1004160029F420E030E04FE250E684C028E7AE0140
:10042600455F5F4FBE016F5F7F4FC4010E94A90207
:100436007FC0A501400F511F652D70E09701CE01C9
:100446000B960E940000892B09F475C0D6018D9188
:100456009C91119701968D939C9373C0652D70E0C6
:10046600A701CE010B960E940000892B09F463C0F8
:10047600D601ED91FC911197CF0101968D939C9336
:100486002081AE01455F5F4FBE016F5F7F4FC401A4
:100496000E9400004DC0B0E85B124DC0F60180819D
:1004A6009181019680839183D701ED91FC911197FB
:1004B600CF0102968D939C93808120C0B0E85B1299
:1004C6003AC0F60180819181019680839183D7019C
:1004D600ED91FC911197CF0102968D939C934081EB
:1004E600518120E030E01EC0B0E85B1224C0F60166
:1004F600208131812F5F3F4F208331838B870DC051
:1005060085E28B87D6016D927C9219821A821D82B2
:100516001E828FEF9FEF8B839C8321E030E0AE013C
:10052600455F5F4FBE016F5F7F4FC4010E941F0B87
:100536008A0D9B1D07C0F6018081918101968083FB
:0C0546009183C5012E96EFE00C94910CFF
:10055200AFE0B0E0EFEAF2E00C94450C1C016B0155
:1005620049835A832B83FB01828193818480958006
:1005720000811181A680B78097FD02C00D7F02C065
:1005820081E090E0E981FA8140805180628073804D
:100592009801207133272C833D83740104FF08C026
:1005A200411451046104710419F032E0E31AF108B4
:1005B200F801E870FF27EE83FF8303FF03C0F1E039
:1005C200EF1AF108F6010084F185E02D3197EE87EC
:1005D200FF87EA0DFB1D10829C012E193F09288717
:1005E2003987C801827099278A879B87EB818E2F72
:1005F200EE0F990B9C01215431092C873D872E85E2
:100602003F852230310530F48C819D81892B09F0A0
:1006120042C05CC0411451046104710461F18E85D1
:100622009F8501978E879F87C2018F7099278A3095
:10063200910514F4C09602C0895A9F4FEC85FD853E
:100642007A9748F49C012062215631092A313105FA
:1006520010F40E94670DEE85FF85EA0DFB1D808375
:10066200F1E0EF1AF10884E0769467945794479486
:100672008A95D1F7C4CF888599858E0D9F1D18164E
:1006820019066CF21E141F040CF0BECFEA85FB851E
:10069200EF2B29F6B9CFE981FA8180819181A2817C
:1006A200B381892B8A2B8B2B89F0EE85FF85EA0D8E
:1006B200FB1D31972B8120838E859F8502978E8724
:1006C2009F87FC01EA0DFB1D80E38083EE81FF81A1
:1006D200EF2B59F02E853F85215031092E873F8718
:1006E200F901EA0DFB1D80E28083F6014085518508
:1006F200415051092E853F85421B530BB9016A0DAA
:100702007B1D9401C1010E94C8089C01F1018081F6
:10071200918190FF06C0F60182819381821793072F
:0C0722000CF4C9012F96E2E10C948E0C3F
:10072E00CF93DF9380E094E02DEFFC012083C0E4B3
:10073E00D4E02DE02883A0E6B4E020E32C9340EA39
:10074E0054E023E0FA01208321E0FC0124832C8372
:10075E0014961C921497FA011482FC01108A118AC5
:10076E00128A138A148A158A168A178A188A198A7F
:10077E001A8A1B8A1C8A1D8A1E8A1F8A50961C92F0
:10078E00509751961C92519752961C92529753968F
:10079E001C92539754961C92549755961C925597AB
:1007AE0056961C92569757961C92FA01108A118AE9
:1007BE00128A138A148A158A168A178AE0EEF5E0D1
:1007CE0011821082158285E08783108684E08187EE
:1007DE0082E08683128286E99DE080936160909329
:1007EE00626087E99DE080935F609093606088E926
:1007FE009DE080935D6090935E6089E99DE08093BB
:10080E005B6090935C608AE99DE080935960909361
:10081E005A608BE99DE080935760909358608CE905
:10082E009DE080935560909356608DE99DE0809396
:10083E005360909354608EE99DE080935160909345
:10084E0052608FE99DE080934F609093506080EAF4
:10085E009DE080934D6090934E6081EA9DE0809381
:10086E004B6090934C6082EA9DE080934960909338
:10087E004A6083EA9DE0809347609093486084EAE3
:10088E009DE0809345609093466085EA9DE080935D
:10089E0043609093446086EA9DE08093416090931C
:1008AE00426087EA9DE080933F609093406088EAC3
:1008BE009DE080933D6090933E6089EA9DE0809339
:0C08CE003B6090933C60DF91CF91089557
:1008DA00CF92DF92EF92FF921F93CF93DF93C82FAD
:1008EA000E94E30CA0E0B0E09C01AD01689413F80B
:1008FA0056954795379527951694D1F76CEB71ED78
:10090A0083E090E00E94F30C20E030E446E050E0FF
:10091A000E94950B69017A01122FDD2DFF92EF9249
:10092A00DF922F938FE291E89F938F930E945E0C40
:10093A000F900F900F900F900F900F90C434D9F42E
:10094A00CC0CDD1CEE1CFF1CD701C601880F991FB9
:10095A00AA1FBB1F880F991FAA1FBB1FBC01CD016D
:10096A006C0D7D1D8E1D9F1D162FD72F80E491E8DB
:10097A000E94BC0716C0C130A1F4AEE0B3E0A701E3
:10098A0096010E94510D24E630E040E050E00E94BA
:10099A00950B122FD32F622F732F8DE491E80E94AB
:1009AA00BC07812F9D2FDF91CF911F91FF90EF9070
:0609BA00DF90CF900895CC
:1009C000A2E0B0E0E6EEF4E00C94450C3C016B01D3
:1009D000FB0122813381A480B5808081918189834C
:1009E0009A8386809780FA012080318042805380EC
:1009F000B201A10157FE07C044275527BA01421989
:100A000053096409750937FD03C08D7F89839A8373
:100A1000950157FC05C0898182FD02C083FF02C099
:100A200021503109CE0101967C010AE010E0C60197
:100A30000E94BA0557FC03C0298122FF0AC0019712
:100A4000F401E80FF91F57FC02C02BE209C02DE2A8
:100A500007C023FF06C00197F401E80FF91F20E249
:100A6000208309811A81F601408551854150510941
:100A7000481B590BB401680F791F9501C3010E94EF
:100A8000C8089C01F3018081918190FF06C0F601A6
:100A900082819381821793070CF4C9012296E2E1C7
:040AA0000C948E0C18
:100AA400CF93DF93DC01F90168387105F1F05CF450
:100AB4006138710561F164387105A1F1603871051F
:100AC40009F051C02FC0603C710509F441C0603F7A
:100AD4007105F1F1603A710509F045C0C081D18119
:100AE400CE0102968083918325C0C081D181CE013D
:100AF400029680839183452B39F04881042E000CA3
:100B0400550B660B770B1CC0488150E029C0C0818F
:100B1400D181CE01049680839183488159816A8171
:100B24007B810EC0C081D181CE01029680839183E6
:100B3400452BA1F048815981052E000C660B770BDB
:100B44004D935D936D937C93139781E090E00DC07A
:100B5400C081D181CE0102968083918348815981DD
:100B640060E070E0EDCF80E090E0DF91CF910895F8
:100B7400A0E0B0E0E0ECF5E00C94470CDC012801C7
:100B84001696AD90BC901797F701808191811296CB
:100B9400ED91FC9113971896CD91DC9119972197BB
:100BA400F7FF02C0E1E0F0E0CA0DDB1D1882690125
:100BB400A1E0B0E08F01021B130B4C01F2E08F2285
:100BC4009924052C000C66087708CE018A199B0924
:100BD400CA15DB0519F1411551056105710589F047
:100BE400CB01BA01A30192010E94950BCA01A62F61
:100BF400B72F605D6A9341E0C41AD108A901BC0112
:100C0400E4CF98012C0D3D1D121613064CF31C1451
:100C14001D0434F48114910419F702C080E090E0BB
:100C2400AB2B31F4F701208131812F7E2083318376
:0A0C3400CDB7DEB7E0E10C94900CA0
:100C3E001F920F920FB60F9211242F933F934F9343
:100C4E005F936F937F938F939F93AF93BF93EF9326
:100C5E00FF931C9B05C0E0915D60F0915E6009956D
:100C6E001D9B05C0E0915B60F0915C600995199B3E
:100C7E0005C0E0914560F09146600995189B05C04E
:100C8E00E0914360F091446009951A9B05C0E09194
:100C9E004160F091426009951B9B05C0E0913F6059
:100CAE00F091406009951E9B05C0E0913D60F0916A
:100CBE003E6009951F9B05C0E0913B60F0913C6042
:100CCE0009958FEF83B9FF91EF91BF91AF919F91EE
:100CDE008F917F916F915F914F913F912F910F90D7
:080CEE000FBE0F901F90189536
:100CF600A2E0B0E0E1E8F6E00C94490C4C016B018F
:100D0600FB01228133816480758080819181898392
:100D16009A83A680B78037FD03C08D7F89839A8327
:100D2600FA014081518162817381CE0101967C0175
:100D360008E010E09301C6010E94BA05298124FF4C
:100D460006C00197F501E80FF91F20E320832981EA
:100D560023FF06C00197F501E80FF91F20E2208363
:100D660009811A81F6014085518541505109481B78
:100D7600590BB501680F791F9301C4010E94C80879
:100D86009C01F4018081918190FF06C0F601828169
:100D96009381821793070CF4C9012296EEE00C9416
:020DA600920CAD
:100DA80040E068ED80E690E00E948A0D40E068ED42
:100DB80081E690E00E948A0D40E068ED85E690E0CB
:100DC8000E948A0D40E068ED88E790E00E948A0D55
:100DD80044E268ED88E690E00E948A0D40E068ED04
:100DE80089E690E00E948A0D40E068ED80E790E097
:100DF8000E948A0D40E068ED8CE790E00E948A0D21
:100E080040E068ED82E690E00E948A0D40E068EDDF
:100E180083E690E00E948A0D40E068ED84E690E069
:100E28000E948A0D40E068ED80E890E00E948A0DFB
:0C0E3800E0E6F0E0858181FFFDCF089529
:100E44001F920F920FB60F9211242F933F934F933B
:100E54005F936F937F938F939F93AF93BF93EF931E
:100E6400FF937C9B05C0E0915960F0915A6009950D
:100E74007D9B05C0E0915760F09158600995799B7E
:100E840005C0E0915360F091546009957A9B05C0C8
:100E9400E0915160F091526009957B9B05C0E0910F
:100EA4004F60F091506009957E9B05C0E0914D60C4
:100EB400F0914E6009958FEF8FB9FF91EF91BF913B
:100EC400AF919F918F917F916F915F914F913F91DE
:0C0ED4002F910F900FBE0F901F901895EB
:100EE0000F931F93CF93DF93DB01109719F48FEFCC
:100EF0009FEF3DC02D913C91119730FF25C0169674
:100F00004D915C91179714962D913C91159742172E
:100F1000530778F41296ED91FC9113978083129603
:100F20002D913C9113972F5F3F4F12962D933C9339
:100F3000139716962D913C9117972F5F3F4F16965A
:100F40002D933C93179713C01C96ED91FC911D9720
:100F5000309769F2EB01092F182F0995892B39F683
:100F60008E819F8101968E839F83812F902FDF91A9
:080F7000CF911F910F9108952C
:100F7800CF93DF93C82FD92FFB019B01ADECBCECBD
:100F88000E94030DAC015695479556954795569581
:100F980047959A013695279536952795ABE7B4E19D
:100FA8000E94030D9695879564E6689F9001699F56
:100FB800300D1124421B530B5F934F939F013695BD
:100FC80027953695279536952795A5ECB0E20E948A
:100FD800030D929582958F7089279F7089279F931B
:100FE8008F93DF93CF9380E291E89F938F930E9432
:100FF8005E0C8DB79EB708968DBF9EBFDF91CF91CF
:02100800089549
:10100A00A2E0B0E0EBE0F8E00C94490C5C016B0163
:10101A00FB0122813381848095808081918189833B
:10102A009A836680778037FD03C08D7F89839A8390
:10103A00FA014081518162817381CE0101967C015E
:10104A000AE010E09401C6010E94BA0509811A81DA
:10105A00F6014085518541505109481B590BB3018E
:10106A00680F791F9401C5010E94C8089C01F50107
:10107A008081918190FF06C0F60182819381821757
:0E108A0093070CF4C9012296EEE00C94920C30
:101098001F920F920FB60F9211242F933F934F93E5
:1010A8005F936F937F938F939F93AF93BF93EF93C8
:1010B800FF93599B05C0E0915560F09156600995E2
:1010C8005B9B05C0E0914B60F0914C6009955A9B81
:1010D80005C0E0914960F0914A600995589B05C0A8
:1010E800E0914760F091486009958FEF8BB9FF91C7
:1010F800EF91BF91AF919F918F917F916F915F9188
:101108004F913F912F910F900FBE0F901F90189500
:10111800A2E8B0E0E2E9F8E00C944B0C5C014A016B
:10112800CF57DF4F68837983C158D040C12CD12C69
:10113800CF57DF4FE881F981C158D040808188239B
:10114800E9F07401860120E830E0AE014F5F5F4F9F
:10115800BE016F577F4FC5010E94AB008C0D9D1DCE
:101168008C159D054CF48FE490E08093006090937B
:1011780001608FEF9FEF03C06C01DACFC601CE5735
:08118800DF4FECE00C94940C25
:10119000A0E0B0E0EEECF8E00C944B0C6C015B01CD
:1011A0007A01E901480181E08822992400FD03C009
:1011B0004217530750F0A701B501C6010E94F50B75
:1011C000EC16FD0610F0C70117C08E010E191F099D
:1011D0000115110541F0B60180E290E00E94700710
:1011E00001501109F5CF8114910429F4A701B5012B
:1011F000C6010E94F50BCE01CDB7DEB7ECE00C9432
:02120000940C4C
:101202001F920F920FB60F9211242F933F934F9379
:101212005F936F937F938F939F93AF93BF93EF935C
:10122200FF93B89B05C0E0916160F09162600995FF
:10123200B99B05C0E0915F60F091606009958FEF06
:1012420087BBFF91EF91BF91AF919F918F917F915A
:101252006F915F914F913F912F910F900FBE0F9021
:041262001F9018952C
:101266001F920F920FB60F9211242F933F934F9315
:101276005F936F937F938F939F93AF93BF93EF93F8
:10128600FF938091060B81FF0AC0E0916F60F09199
:101296007060309709F0099582E08093060BFF9104
:1012A600EF91BF91AF919F918F917F916F915F91D8
:1012B6004F913F912F910F900FBE0F901F90189551
:1012C600CF93DF93C0E8DBE08EEF9FE08AA79BA772
:1012D60088A799A78EA79FA78CA79DA719821A8270
:1012E6001B821C821E8E188E198E1C8A1D8A1886D9
:1012F600198640E068ED82E99BE00E948A0D188A13
:10130600198A1C86E0E8FBE0868580FFFDCFE0E8D1
:0C131600FBE016861082DF91CF91089555
:10132200DC01ED91FC91119780818A3221F080E0FD
:1013320090E03AE00EC03196ED93FC93DB01ED9123
:10134200FC911197CF0102968D939C93808191819C
:101352000895ED91FC911197208120532A3068F471
:10136200389FA001399F500D1124CA01820F911D8F
:0C1372003196ED93FC931197ECCF089599
:10137E001F920F920FB60F9211242F933F934F93FC
:10138E005F936F937F938F939F93AF93BF93EF93DF
:10139E00FF9382E080930D06E0913760F091386004
:1013AE00309709F00995FF91EF91BF91AF919F9101
:1013BE008F917F916F915F914F913F912F910F90F0
:0813CE000FBE0F901F9018954F
:1013D6001F920F920FB60F9211242F933F934F93A4
:1013E6005F936F937F938F939F93AF93BF93EF9387
:1013F600FF9381E080930D06E0913560F0913660B1
:10140600309709F00995FF91EF91BF91AF919F91A8
:101416008F917F916F915F914F913F912F910F9097
:081426000FBE0F901F901895F6
:10142E001F920F920FB60F9211242F933F934F934B
:10143E005F936F937F938F939F93AF93BF93EF932E
:10144E00FF93E0916960F0916A60309709F0099519
:10145E0080E180930B0AFF91EF91BF91AF919F9125
:10146E008F917F916F915F914F913F912F910F903F
:08147E000FBE0F901F9018959E
:101486001F920F920FB60F9211242F933F934F93F3
:101496005F936F937F938F939F93AF93BF93EF93D6
:1014A600FF93E0916760F0916860309709F00995C5
:1014B60080E280930B0AFF91EF91BF91AF919F91CC
:1014C6008F917F916F915F914F913F912F910F90E7
:0814D6000FBE0F901F90189546
:1014DE001F920F920FB60F9211242F933F934F939B
:1014EE005F936F937F938F939F93AF93BF93EF937E
:1014FE00FF93E0916560F0916660309709F0099571
:10150E0080E480930B0AFF91EF91BF91AF919F9171
:10151E008F917F916F915F914F913F912F910F908E
:08152E000FBE0F901F901895ED
:101536001F920F920FB60F9211242F933F934F9342
:101546005F936F937F938F939F93AF93BF93EF9325
:10155600FF93E0916360F0916460309709F009951C
:1015660081E080930B0AFF91EF91BF91AF919F911C
:101576008F917F916F915F914F913F912F910F9036
:081586000FBE0F901F90189595
:10158E001F920F920FB60F9211242F933F934F93EA
:10159E005F936F937F938F939F93AF93BF93EF93CD
:1015AE00FF9381E080938D0BE0916B60F0916C6006
:1015BE00309709F00995FF91EF91BF91AF919F91EF
:1015CE008F917F916F915F914F913F912F910F90DE
:0815DE000FBE0F901F9018953D
:1015E6001F920F920FB60F9211242F933F934F9392
:1015F6005F936F937F938F939F93AF93BF93EF9375
:10160600FF9384E080938D0BE0916D60F0916E60A6
:10161600309709F00995FF91EF91BF91AF919F9196
:101626008F917F916F915F914F913F912F910F9085
:081636000FBE0F901F901895E4
:10163E00A0E0B0E0E5E2FBE00C944D0C7C01FB0178
:10164E00EA01C901A280B380C480D58000811181D6
:10165E00209711F4C8E2D0E6009719F4CE010E944B
:10166E00200DB7FC04C0A816B90608F4C5019601F2
:10167E00AC01BE01C7010E94C808CDB7DEB7EAE0D3
:04168E000C94960C16
:10169200E0E2F8E080E197E280879187158280E4BA
:1016A200868383E0878313861486168615868EEAE0
:1016B2009DE080937560909376608FEA9DE08093C1
:1016C20073609093746080EB9DE08093716090935F
:0C16D200726010927760109278600895AA
:1016DE00E0E0F8E080E197E280879187158280EC68
:1016EE00868383E08783138614861686158681EBA0
:1016FE009DE080937D6090937E6082EB9DE0809371
:10170E007B6090937C6083EB9DE0809379609093F7
:0C171E007A6010927F6010928060089545
:10172A00A1E21A2EAA1BBB1BFD010DC0AA1FBB1FDB
:10173A00EE1FFF1FA217B307E407F50720F0A21B4D
:10174A00B30BE40BF50B661F771F881F991F1A94BA
:10175A0069F760957095809590959B01AC01BD01E4
:04176A00CF0108950E
:10176E00CF93DF93EC0190E0E92FF0E0EE0FFF1F37
:10177E00EE5FFF498081811102C081810EC0A88178
:10178E00B9812C91821305C091811196A883B983DA
:10179E0001C09F5F9B3040F3892FDF91CF91089559
:1017AE00E0E0FAE087E490E080A791A782A793A7F4
:1017BE0084A795A710A211A223E721831282138278
:1017CE001482158216821782168611861286138649
:0C17DE0086A397A3178681E080830895FE
:1017EA00A0E0B0E0EBEFFBE00C944F0C6C01EB01D6
:1017FA008A017B01E40EF51ECE15DF0541F08991C1
:10180A00B601082E000C990B0E947007F5CFC8018B
:0A181A00CDB7DEB7E8E00C94980C9F
:10182400E0E0F6E087E0818312828FE28383148212
:1018340016861386148681E0808790E4918794E16C
:1018440095832FEF31E0248B358B128A138A8083A2
:0418540080E0089593
:10185800E0E0F9E01082128281E7868381E08383E9
:10186800158217821482108684818860848385811A
:101878008160858385E99DE08093396090933A6023
:021888000895C1
:10188A002F923F924F925F926F927F928F929F9286
:10189A00AF92BF92CF92DF92EF92FF920F931F9374
:1018AA00CF93DF93CDB7DEB7CA1BDB0BCDBFDEBF4D
:0218BA0009948F
:1018BC00A0E0B0E0E4E6FCE00C94550CAE014B5F0C
:1018CC005F4FFA0161917191AF01E0918360F091EA
:1018DC008460808191810E94760CE2E00C949E0CD5
:1018EC00A2E0B0E0ECE7FCE00C94530C8C014983D3
:1018FC005A83AE014F5F5F4F0E948C08F801208124
:10190C0024FF02C08FEF9FEF2296E4E00C949C0C16
:10191C002A88398848885F846E847D848C849B8473
:10192C00AA84B984C884DF80EE80FD800C811B8181
:10193C00AA81B981CE0FD11DCDBFDEBFED010895B7
:10194C000E9497030E94120C0E94D4060E942C0C39
:10195C000E94D70B0E94D10C0E9463090E946F0B4E
:0E196C000E94490B0E94700D0E942E0D0895DE
:10197A000E94A60CE0918360F0918460809181605E
:10198A00909182608083918381E00E946D0484E655
:08199A0090E00E943B0DF8CF24
:1019A200E0E0FBE082E090E0848795871286138670
:1019B20081E081831086148282E0858316821186FB
:0419C20010820895F2
:1019C600E0E0F6E0808781E082870E94860D88232A
:1019D600E1F3E0E0F6E08089918921E0258708952A
:1019E600DB018F939F930E94510DBF91AF91A29FF0
:1019F600800D911DA39F900DB29F900D1124089507
:101A0600A29FB001B39FC001A39F700D811D112439
:0E1A1600911DB29F700D811D1124911D089528
:101A2400CF93C82F8A3019F48DE00E94120D8C2FA9
:0C1A34000E94460D80E090E0CF910895E4
:101A4000FC01AF014F5F5F4F2081222311F0FA01AB
:0C1A5000F8CF9F01281B390BC901089535
:101A5C0040E068ED80E191E00E948A0DE0E1F1E068
:0A1A6C0012821382789480E008953E
:101A7600009741F0EFE6F7E13197F1F700C000007B
:061A86000197C1F708956D
:101A8C00CF93C82F0E94800D8823E1F38C2F0E94E6
:061A9C008E0DCF910895AC
:101AA2000E94030DA59F900DB49F900DA49F800DE1
:061AB200911D11240895AE
:101AB800EC010E94B50D0E94B40DCE010E94B60D36
:061AC800CE010E94930D07
:101ACE009C01215631092A31310510F48F75992761
:021ADE00089569
:101AE000E0EBF0E0148286E08083128280E00895CB
:101AF0009C01215431092A31310508F4806208958E
:0C1B00008091240885FB882780F9089557
:081B0C0080910D06817008951F
:081B1400FC0164BF4083089549
:061B1C00809322080895E9
:041B22000C9400001F
:041B26000E948E008B
:021B2A0008951C
:021B2C0008951A
:021B2E00089518
:021B3000089516
:021B3200089514
:021B3400089512
:021B3600089510
:021B380008950E
:021B3A0008950C
:021B3C0008950A
:021B3E00089508
:021B4000089506
:021B4200089504
:021B4400089502
:021B4600089500
:021B48000895FE
:021B4A000895FC
:021B4C000895FA
:021B4E000895F8
:021B50000895F6
:021B52000895F4
:021B54000895F2
:021B56000895F0
:021B58000895EE
:021B5A000895EC
:021B5C000895EA
:021B5E000895E8
:021B60000895E6
:021B62000895E4
:021B64000895E2
:021B66000895E0
:021B68000895DE
:021B6A000895DC
:021B6C000895DA
:101B6E0068076C094C836A9074A07AC000806888FC
:061B7E0000846C8200816E
:101B8400030000000000000000000000120D00002F
:071B9400286E756C6C29003E
:061B9B00286E696C2900B0
:021BA100AD0D88
:021BA300AC0D87
:021BA500AB0D86
:021BA700AA0D85
:021BA9001860C2
:021BAB00856053
:02000004008278
:090000000000000000D808000017
:00000001FF
