:060000000A128A110C280F
:10000800FE00030EF0000A08F1000A128A11D72D2B
:100018000A128A110F28FA01FB0183135A3084004F
:100028006A300A128A11B4260A128A1183010A1246
:100038008A11162D003083120313C2000030C1004C
:100048000030C0000030BF000030B5000030B40000
:100058000030B3000030B200AA1F332834284728E4
:100068000030B5000030B4000030B3000130B200F9
:10007800A709A809A909AA09A70A0319A80A031917
:10008800A90A0319AA0A3F082B07AE002E08840004
:100098002C08F2002D08F3000030F31BFF30F400A9
:1000A800F5002A08F9002908F8002808F7002708A9
:1000B800F6000A128A112A240A128A117208303E9E
:1000C80083138000013083120313BF070030031825
:1000D8000130C007003003180130C1070030031891
:1000E8000130C2072C08F2002D08F3000030F31B82
:1000F800FF30F400F5002A08F9002908F80028085C
:10010800F7002708F6000A128A1191230A128A11A9
:10011800750883120313AA007408A9007308A800BD
:100128007208A7002A08290428042704031D9D280B
:100138009E28472835083404330432040319A528B7
:10014800A628BC283F082B07AE002E0884002D30B7
:10015800831380000130BF07003003180130C00747
:10016800003003180130C107003003180130C207FE
:100178003F082B07AE002E0884008313800100304F
:10018800BA000030B9000030B8000030B700FF30C6
:10019800AE00FF30AF00FF30B000FF30B1003F08C5
:1001A800AE0740080318400FDA28DB28AF074108DC
:1001B8000318410FE028E128B00742080318420A53
:1001C800B1073108BE003008BD002F08BC002E085A
:1001D800BB00232937082B07AE002E08840000082F
:1001E800B6003B082B07AE002E0884000008FF006D
:1001F80037082B07AF002F0884007F0880003B08D2
:100208002B07AE002E088400360880000130B7079F
:10021800003003180130B807003003180130B9075F
:10022800003003180130BA07FF30BB07FF30031C4A
:10023800BC07FF30031CBD07FF30031CBE073A088C
:10024800803AFF003E08803A7F02031D35293D08A9
:100258003902031D35293C083802031D35293B089E
:0C0268003702031C38293929EE28080051
:1004000002308A000408840A820700341934003458
:1004100000340034E234043400340034073400344F
:100420000734003403340034063400340934003413
:1004300038340034C034013400340E340134003414
:100440001E3400340034FC3407340034003480346B
:10045000273445346034223449345434E834033486
:10046000E83403344034FF34FE34073406340534B2
:100470000434033402340134003449344E344134FA
:100480003234323436345F344434493445345F34A2
:10049000493444345F344D34493453344D34413459
:1004A00054344334483420340D340A34003449344D
:1004B000323443345F345434523441344E34533440
:1004C0004D3449345334533449344F344E345F340B
:1004D0004534523452344F34523420340D340A34BB
:1004E000003449344E3441343234323436345F349B
:1004F000543449345F34493444345F344D344934DE
:1005000053344D34413454344334483420340D345E
:100510000A34003449344E34563441344C3449346E
:1005200044345F344934323443345F3441344434E6
:100530004434523445345334533420340D340A3463
:1005400000344E344F3454345F3449344E344934DB
:100550005434493441344C3449345A3445344434A5
:1005600020340D340A3400344234413444345F348E
:1005700050344134523441344D344534543445348C
:10058000523420340D340A34003455344E344B3454
:100590004E344F3457344E345F3445345234523431
:1005A0004F34523420340D340A34003443344F3441
:1005B0004E344634493447345F344534523452342F
:1005C0004F34523420340D340A340034463441342C
:1005D00049344C3420340D340A3400344F344B3415
:1005E00020340D340A3400348312031323088400AA
:1005F00083138001840A80010A128A11AB260A1231
:100600008A11831203132008013EA4002108031855
:10061000013E003EA500240884008317251C831397
:100620000008A600A7010310260DF200270DF30015
:100630000A128A1198260A128A11831203132208B9
:10064000A400A5012408F2002508F3000A128A116B
:1006500098260A128A110A128A11A2260A128A11EF
:100660000A128A11AB260A128A1183120313200878
:10067000013EA40021080318013E003EA500240805
:1006800084008317251C83130008A600A70103100C
:10069000A60DA70D01302604F20000302704F30058
:1006A0000A128A1198260A128A1101300A128A1136
:1006B00035260A128A1183120313A400A501230808
:1006C0008400240883138000840A250880002308FE
:1006D00084000008A400840A0008A5002408A500DE
:1006E000A4012308840024088000840A25088000CF
:1006F00000300A128A1135260A128A118312031356
:10070000A400A50123088400240883138004840A1C
:10071000250880040A128A11A2260A128A110030C2
:10072000080083120313A201F51F972B982BA52B0A
:10073000F209F309F409F509F20A0319F30A031996
:10074000F40A0319F50A0130A200F91FA82BA92BFE
:10075000B62BF609F709F809F909F60A0319F70A99
:100760000319F80A0319F90A0130A2060030A6009D
:100770000030A5000030A4000030A3007508740408
:10078000730472040319C52BC62B112C0130A10070
:10079000D42B0130A0000310F20DF30DF40DF50D74
:1007A000A00BCB2B0130A107F51FD72BD82BC92BC2
:1007B0000130A0000310A30DA40DA50DA60DA00BE4
:1007C000DA2B75087902031DEF2B74087802031DDC
:1007D000EF2B73087702031DEF2B72087602031CC0
:1007E000F22BF32B022C7208F6027308031C730F12
:1007F000F7027408031C740FF8027508031C750FC8
:10080000F902231401300310F50CF40CF30CF20C74
:10081000FF3E031D032C0130A102031D102C112CDF
:10082000D82B22080319152C162C212CA309A40956
:10083000A509A609A30A0319A40A0319A50A0319FD
:10084000A60A2608F5002508F4002408F30023086A
:10085000F200080083120313A201F91F302C312C7F
:100860003E2CF609F709F809F909F60A0319F70AFF
:100870000319F80A0319F90A0130A200F51F412CE7
:10088000422C4D2CF209F309F409F509F20A031977
:10089000F30A0319F40A0319F50A750874047304BA
:1008A00072040319542C552C962C0130A100632C92
:1008B0000130A0000310F20DF30DF40DF50DA00BA7
:1008C0005A2C0130A107F51F662C672C582C75088F
:1008D0007902031D752C74087802031D752C7308AA
:1008E0007702031D752C72087602031C782C792C74
:1008F000872C7208F6027308031C730FF702740842
:10090000031C740FF8027508031C750FF9020130FF
:100910000310F50CF40CF30CF20CFF3E031D882CB5
:100920000130A102031D952C962C672C2208031977
:100930009A2C9B2CA62CF609F709F809F909F60A56
:100940000319F70A0319F80A0319F90A7908F500D7
:100950007808F4007708F3007608F2000800F70042
:10096000CF2CE930F800092DE130F800092D6C306A
:10097000F800092D3830F800092DD130F800092D84
:100980005230F800092DAF30F800092D9C30F800E6
:10099000092D8530F800092DC030F800092D7708A1
:1009A000F500F601F51BF6037608003A0319DC2C76
:1009B000FF3A0319E12CCC2C7508003A0319B12C2D
:1009C000CC2C7508F83A0319C92C013A0319C62C26
:1009D000033A0319C32C013A0319C02C073A03192F
:1009E000BD2C013A0319BA2C033A0319B72C013A6A
:1009F0000319B42CCC2C780884000A128A11002226
:100A00000A128A110A128A115E250A128A1101300D
:100A1000F807780884000A128A1100220A128A1143
:100A2000003A031D142D152DFB2C08000A128A1103
:100A30000B260A128A110A128A117A260A128A11C0
:100A40000A128A118A260A128A1183120313861344
:100A50000613071405175C3083120313A00000303F
:100A6000A100FE30A2005830A3000A128A11F4221D
:100A70000A128A110A128A11AF240A128A118312E9
:100A800003135808C3005908C400C501C6010A125F
:100A90008A11A2250A128A110B3083120313D70080
:100AA0002630D6005D30D500D50B542DD60B542DF5
:100AB000D70B542D2B2D0A128A110C28F3008B13FF
:100AC000831203130512ED30F200662D672DF20B31
:100AD000652D6A2D6B2D6C2DF4010130F200740A26
:100AE000732D0310F20DFF3E031D712D7208730567
:100AF00003197B2D7C2D802D831203130516832D66
:100B0000831203130512ED30F200862D872DF20BB0
:100B1000852D8A2D8B2D8C2D0130F4070830740221
:100B2000031C932D942D6D2D831203130516ED30A8
:100B3000F2009A2D9B2DF20B992D9E2D9F2DA02D0D
:100B40008B170800831203134608AA004508A90062
:100B50004408A8004308A7004730AB000A30AC00A7
:100B60000030AD000A128A111E200A128A11831267
:100B70000313D301D401CD2D5308473E8400000850
:100B80000A128A115E250A128A1101308312031398
:100B9000D3070318D40A0030D4075308473E840013
:100BA00083130008031DD52DD62DBC2D08008B1EE8
:100BB000DA2DDB2D042E0B1DDE2DDF2D042E013052
:100BC000FA070318FB0A0030FB070F307B024230A4
:100BD00003197A02031CED2DEE2D032E831203134D
:100BE0005A085B040319F52DF62DFB2D8615061109
:100BF000DA01DB01012E861106150130DA00003022
:100C0000DB00FA01FB010B1171088A00700E8300F2
:100C1000FE0E7E0E09007030831603138F048F11B1
:100C20000F14AF308316031788008901831603134E
:100C300007108710071187110716871207138717E8
:100C400005148514051585150512851605138517D8
:100C500006108610061186110612861206138613D8
:100C600083120313861206120800F6000A128A1174
:100C70005F260A128A118316031391150A128A112C
:100C80005F260A128A11831203131308F200F3017C
:100C90007208F4007308F5000A128A115F260A121E
:100CA0008A1176080319552E592E831603139116AF
:100CB0005C2E831603139112111674080800831614
:100CC00003139119642E652E5F2E1119682E692E5B
:100CD0005F2E91186C2E6D2E5F2E1118702E712EB6
:100CE0005F2E111A742E752E5F2E1419782E792E00
:100CF0005F2E08008316031381128111F8308105DD
:100D00008B128312031310109010CF3090058B17A5
:100D10000B1708008312031394161408F0390838CF
:100D2000940013308316031393009101940108007B
:100D30000A128A115F260A128A117208831203139B
:100D4000930008000A128A115F260A128A1183167C
:100D50000313111508000A128A115F260A128A115C
:100D6000831603131114080064008001840A04062A
:080D7000031900340406B52E3E
:04400E00F420FF3F5C
:00000001FF
