:060000000A128A110C280F
:10000800FE00030EF0000A08F1000A128A1594286F
:100018000A128A110F28FA01FB0183120313E40163
:10002800E501E601E701E801E901EA018313A030EF
:100038008400C0300A128A11F8270A128A11830133
:100048000A128A11D92A83120313230884008317FA
:10005800241C83138001840A80010A168A117527DB
:100068000A128A11831203132008013EA5002108F1
:100078000318013E003EA600250884008317261CAD
:1000880083130008A700A8010310270DF200280D0C
:10009800F3000A168A1187270A128A11831203139A
:1000A8002208A500A6012508F2002608F3000A1672
:1000B8008A1187270A128A110A168A117E270A12BC
:1000C8008A110A168A1175270A128A1183120313D4
:1000D8002008013EA50021080318013E003EA600A5
:1000E800250884008317261C83130008A700A8018D
:1000F8000310A70DA80D01302704F20000302804D2
:10010800F3000A168A1187270A128A1101300A1287
:100118008A156A200A128A1183120313A500A60100
:10012800230884008317241C831325088000840A6D
:1001380026088000230884008317241C83130008E2
:10014800A500840A0008A6002508A600A501230822
:1001580084008317241C831325088000840A26083A
:10016800800000300A128A156A200A128A11831246
:100178000313A500A601230884008317241C8313F6
:1001880025088004840A260880040A168A117E2716
:100198000A128A11003008007030831603138F0486
:1001A8008F110F14AF308316031788008901831647
:1001B80003130710871007118715071687120713EF
:1001C8008717051485140515851505128516051359
:1001D8008517061086100611861106128612061358
:0C01E8008613831203138612061208000F
:10020000FF1B0A2983137F1883170008840A031928
:10021000FF0A08007F087F398A000408840A03194E
:10022000FF0A8200C4340934003400341934003425
:1002300000340034CF340434003400340734003444
:1002400007340034033400340634003409340034F5
:1002500038340034C034013400340E3401340034F6
:100260001E3400340034FC3407340034003480344D
:10027000273445346034223449345434E834033468
:10028000E83403341434FF34FE34073406340534C0
:100290000434033402340134003440344034313403
:1002A000323456342034423461347434743420345B
:1002B00076346F346C34743461346734653420348C
:1002C000203456346F346C3474346134673465349C
:1002D0003A342034253464342E342534643456348E
:1002E00020340D340A34003432343434563420345B
:1002F0006434693466346634203476346F346C3454
:1003000074346134673465342034203456346F34A7
:100310006C3474346134673465343A3420342534B1
:1003200064342E3425346434563420340D340A3485
:10033000003432343434563420346434693466340E
:100340006634203442346134743474342034563486
:100350006F346C3474346134673465343A34203427
:10036000253464342E343034253464345634203407
:100370000D340A34003431343234563420344234AB
:10038000613474347434203456346F346C347434BF
:100390006134673465343A342034253464342E347F
:1003A000303425346434563420340D340A34003467
:1003B00049344E3441343234323436345F34443488
:1003C000493445345F34493444345F344D3449341E
:1003D00053344D34413454344334483420340D3490
:1003E0000A3400344934323443345F3454345234A0
:1003F00041344E3453344D344934533453344934F6
:100400004F344E345F344534523452344F345234C6
:1004100020340D340A34003449344E3441343234FB
:10042000323436345F34543449345F3449344434DC
:100430005F344D34493453344D34413454344334AF
:10044000483420340D340A34003449344E345634A0
:1004500041344C34493444345F34493432344334C5
:100460005F34413444344434523445345334533487
:1004700020340D340A3400344E344F3454345F3455
:1004800049344E3449345434493441344C34493479
:100490005A344534443420340D340A340034623440
:1004A00061346C3461346E346334653420346F34B9
:1004B00066346634203431343234763420340A34AD
:1004C0000D340034623461346C3461346E3463341E
:1004D000653420346F346634663420343234343436
:1004E000763420340A340D340034623461346C3490
:1004F00061346E346334653420346F346E342034A8
:1005000031343234763420340A340D3400346234D9
:1005100061346C3461346E346334653420346F3448
:100520006E34203432343434763420340A340D348A
:1005300000344234413444345F3450344134523412
:1005400041344D34453454344534523420340D3420
:100550000A34003455344E344B344E344F3457340F
:100560004E345F344534523452344F345234203494
:100570000D340A34003443344F344E344634493455
:1005800047345F344534523452344F34523420347B
:100590000D340A3400344634413449344C34203468
:1005A0000D340A3400344F344B3420340D340A34C3
:1005B0000034C630F2000030F3000A128A152423FA
:1005C0000A128A110A128A11D0200A128A110A16F6
:1005D0008A119F270A128A110A168A1191270A1274
:1005E0008A11831203138613061307140517C630E6
:1005F000CB000030CC004030CD000230CE000030C7
:10060000CF000030D3000030D2000030D1003230B3
:10061000D0000A128A15E6250A128A110A128A15D2
:100620004B240A128A11C63083120313A90000302A
:10063000AA000730AB000030AC000A128A115A271A
:100640000A128A110A128A154B240A128A11C6301C
:1006500083120313A9000030AA000230AB0000305F
:10066000AC000A128A15D0240A128A110A128A15BD
:100670004B240A128A110A128A1500200A128A11C2
:10068000C63083120313B3000030B4000A128A1577
:10069000CE210A128A11831203133408831603131E
:1006A000C30083120313330883160313C20064309C
:1006B000F2000030F3004308F5004208F4000A128B
:1006C0008A15C8200A128A110A128A155B250A1295
:1006D0008A11831203134C08831603134202C400C9
:1006E000831203134D08031C4D0A831603134302A0
:1006F000C5006430F2000030F3004508F5004408FE
:10070000F4000A128A15C8200A128A1100307302F6
:100710000A300319720203188E2B8F2BC52B9930C8
:1007200083120313BA008130BB006430F200003042
:10073000F300831603134508F5004408F4000A1279
:100740008A1500210A128A11730883120313BD004F
:100750007208BC006430F2000030F300831603130B
:100760004508F5004408F4000A128A15C8200A1248
:100770008A11730883120313BF007208BE000A16A1
:100780008A11AF270A128A11FA2B743083120313CD
:10079000BA008130BB006430F2000030F3008316F1
:1007A00003134508F5004408F4000A128A150021D5
:1007B0000A128A11730883120313BD007208BC0069
:1007C0006430F2000030F300831603134508F5008F
:1007D0004408F4000A128A15C8200A128A11730804
:1007E00083120313BF007208BE000A168A11AF27D6
:1007F0000A128A11831603134408643E83120313FA
:10080000E1008316031345080318013E003E8312DE
:100810000313E200831603134108831203136202D9
:10082000031D182C8316031340088312031361025F
:1008300003181B2C1C2C272C06167530BA0082308E
:10084000BB000A168A11AF270A128A11312C061230
:100850004F30BA008230BB000A168A11AF270A1245
:100860008A11831603134008643E83120313E100C8
:100870008316031341080318013E003E831203133D
:10088000E200831603134508831203136202031D5B
:100890004F2C8316031344088312031361020318B9
:1008A000522C532C5E2C86168730BA008230BB0047
:1008B0000A168A11AF270A128A11682C8612623032
:1008C000BA008230BB000A168A11AF270A128A11B9
:1008D0000B3083120313E3002630E2005D30E100A9
:1008E000E10B702CE20B702CE30B702C402B0A12E6
:1008F0008A110C28003083120313C2000030C1009B
:100900000030C0000030BF000030C7000030C6001B
:100910001B30C5003030C4000030BC000030BB00CC
:100920000330BA00E830B900C3010A168A11C027A3
:100930000A128A11730883120313BE007208BD00E5
:100940003D08B5003E08B600B701B8013508BF073D
:10095000360803110318013E0319AF2CC0073708EE
:1009600003110318013E0319B62CC10738080311FF
:100970000318013E0319BD2CC20703308312031371
:10098000B6009730B500B50BC32CB60BC32C0130A5
:1009900083120313C30714304302031CD02CD12C41
:1009A000952C0030A8000030A7000030A6001430BD
:1009B000A5004208AC004108AB004008AA003F086F
:1009C000A9000A128A15E5230A128A118312031359
:1009D0002508C8002608C900CA01CB014B08F5004C
:1009E0004A08F4004908F3004808F2000030F90012
:1009F0000030F8002730F7001030F6000A128A1590
:100A000086210A128A11750883120313CB00740819
:100A1000CA007308C9007208C8000030A80000307E
:100A2000A7000330A600FF30A5004B08AC004A0821
:100A3000AB004908AA004808A9000A128A15E52354
:100A40000A128A11831203132808CB002708CA0050
:100A50002608C9002508C8004B08F5004A08F4001C
:100A60004908F3004808F2000030F9000030F800AF
:100A70000930F700C430F6000A128A1586210A12DE
:100A80008A11750883120313CB007408CA00730817
:100A9000C9007208C8000030A8000030A700273045
:100AA000A6001030A5004B08AC004A08AB0049086E
:100AB000AA004808A9000A128A15E5230A128A1119
:100AC000831203132808CB002708CA002608C90090
:100AD0002508C8004708F5004608F4004508F3005B
:100AE0004408F2000030F9000030F8000330F7004D
:100AF000E830F6000A128A1586210A128A11750852
:100B000083120313C7007408C6007308C500720877
:100B1000C4004030B5004230B6000F30B70000309E
:100B2000B8004408B50745080318450F982D992DBE
:100B3000B60746080318460F9E2D9F2DB707470896
:100B40000318470AB8073808C7003708C600360830
:100B5000C5003508C4003C08A8003B08A7003A08B7
:100B6000A6003908A5004708AC004608AB004508B8
:100B7000AA004408A9000A128A15E5230A128A115C
:100B8000831203132808C7002708C6002608C500DB
:100B90002508C4004B08F5004A08F4004908F30092
:100BA0004808F2004708F9004608F8004508F70031
:100BB0004408F6000A128A1586210A128A1175085D
:100BC00083120313CB007408CA007308C9007208AB
:100BD000C8000030A8000030A7002730A600103061
:100BE000A5004B08AC004A08AB004908AA00480819
:100BF000A9000A128A15E5230A128A118312031327
:100C00002808CB002708CA002608C9002508C80004
:100C10004908B4004808B3000800003083120313E9
:100C2000A8000030A7007F30A600FF30A500FE30EE
:100C3000BB007F30BC000030BD000030BE003A0871
:100C4000F5003908F4003808F3003708F2000030E6
:100C5000F9000F30F8004230F7004030F6000A1279
:100C60008A1586210A128A11720883120313BB07A0
:100C700073080318730F3D2E3E2EBC07740803182B
:100C8000740F432E442EBD0775080318750ABE075E
:100C90003E08AC003D08AB003C08AA003B08A90098
:100CA0000A128A15E5230A128A11831203132808EF
:100CB000CA002708C9002608C8002508C70035084B
:100CC000F2003608F300F401F5014A08F90049087A
:100CD000F8004808F7004708F6000A128A1586212E
:100CE0000A128A11750883120313A8007408A7005A
:100CF0007308A6007208A5000030BB002030BC00BD
:100D00004E30BD000030BE003508F2003608F3005A
:100D1000F401F5014A08F9004908F8004808F7000D
:100D20004708F6000A128A1586210A128A117208EB
:100D300083120313BF007308C0007408C100750854
:100D4000C20001300310C20CC10CC00CBF0CFF3E2E
:100D5000031DA22E3F08BB0740080318400FB12E09
:100D6000B22EBC0741080318410FB72EB82EBD079D
:100D700042080318420ABE073E08AC003D08AB001B
:100D80003C08AA003B08A9000A128A15E5230A12AA
:100D90008A11831203132808C6002708C5002608F5
:100DA000C4002508C3003308063EBB0034080318FE
:100DB000013E003EBC003B08840083173C1C8313AB
:100DC00047088000840A48088000840A4908800097
:100DD000840A4A0880003308043EBB003408031824
:100DE000013E003EBC003B08840083173C1C83137B
:100DF00043088000840A440880003308063EBB0094
:100E000034080318013E003EBC003B0884008317F1
:100E10003C1C83130008F200840A0008F300840AD3
:100E20000008F400840A0008F5000030F9000030E2
:100E3000F8000030F7001930F6000A128A158621F2
:100E40000A128A118312031333080A3EBD003408C4
:100E50000318013E003EBE003D08840083173E1C7F
:100E6000831372088000840A73088000840A74085F
:100E70008000840A750880003308F4003408F50007
:100E80000530F6003308043EBB0034080318013E69
:100E9000003EBC003B08840083173C1C8313000801
:100EA000F700840A0008F8000A128A15CA220A12FA
:100EB0008A110800831203132908840083172A1C4F
:100EC00083130008031D652F662F682FF930F72F55
:100ED000AC1B6B2F6C2F792F2C08803AFF008030D1
:100EE0007F02031D752F08302B02031C782F792FEA
:100EF0007B2FFA30F72F831203132908A0002A084A
:100F0000A100A2012908023EA3002A080318013EFD
:100F1000003EA4000A128A1127200A128A118312A5
:100F20000313B30033080319962F972F992F330813
:100F3000F72F2908023EAD002A080318013E003EA3
:100F4000AE002D08840083172E1C83130730800504
:100F5000840AFE3080052C08AE002B08AD0003107B
:100F6000AD0DAE0D0310AD0DAE0D0310AD0DAE0DFC
:100F70002C08B0002B08AF000630FF000310AF0DA7
:100F8000B00DFF0BBE2F2D082F04B1002E0830042A
:100F9000B2002908023EAD002A080318013E003EB7
:100FA000AE002D08840083172E1C831331088004A3
:100FB000840A320880042908F4002A08F500F601A2
:100FC0002908023EAD002A080318013E003EAE008B
:100FD0002D08840083172E1C83130008F700840A51
:100FE0000008F8000A128A15CA220A128A1108009B
:100FF00064008001840A0406031900340406F92FF2
:10100000831203131F083F3980389F008316031390
:101010001F169F12C330831203139F050630F3007F
:101020003030F200F20B1228F30B12280000831666
:1010300003139F17831203131F1408008312031353
:101040003508B8003608B90030283408A500383013
:10105000A6003708A7000A128A15EE260A128A157A
:10106000831203133908FF00380884000A128A111A
:1010700000210A128A15003A031D3F28402825281E
:10108000B401B5010800F6000A168A1175270A1284
:101090008A157608F400F5010310740DF200750D41
:1010A000F3000A168A1187270A128A15831603137A
:1010B000111B5B285C2863280A168A117E270A12F6
:1010C0008A15003069280A168A117E270A128A15A5
:1010D000F8300800F4000A168A11E5270A128A156A
:1010E0008316031391150A168A11E5270A128A1529
:1010F000831203131308F200F3017208F50073085A
:10110000F6000A168A11E5270A128A1574080319CF
:101110008A288E28831603139116912883160313A9
:1011200091121116750808008B1E97289828C1285F
:101130000B1D9B289C28C1280130FA070318FB0AC5
:101140000030FB070F307B02423003197A02031C88
:10115000AA28AB28C028831203136808690403195E
:10116000B228B328B82886150611E801E901BE287F
:10117000861106150130E8000030E900FA01FB0194
:101180000B1171088A00700E8300FE0E7E0E09009E
:10119000720873040319CD28CE28FB280130F6000D
:1011A000DA2801300310F20DF30DFF3E031DD228A3
:1011B0000130F607F31FDD28DE28D12873087502F9
:1011C000031DE42872087402031CE728E828EE28AF
:1011D0007208F4027308031CF503F50201300310D2
:1011E000F30CF20CFF3E031DEF280130F602031D45
:1011F000FA28FB28DE287508F3007408F2000800BE
:10120000F601F701720873040319072908293D291B
:101210000130F800142901300310F20DF30DFF3EE8
:10122000031D0C290130F807F31F172918290B2972
:1012300001300310F60DF70DFF3E031D1929730849
:101240007502031D252972087402031C2829292907
:1012500030297208F4027308031CF503F5027614B2
:1012600001300310F30CF20CFF3E031D3129013055
:10127000F802031D3C293D2918297708F300760858
:10128000F2000800F3008B13831203130512ED30F4
:10129000F2004A294B29F20B49294E294F2950299E
:1012A000F4010130F200740A57290310F20DFF3ED9
:1012B000031D55297208730503195F2960296429E4
:1012C0008312031305166729831203130512ED30E9
:1012D000F2006A296B29F20B69296E296F2970299E
:1012E0000130F40708307402031C7729782951294A
:1012F000831203130516ED30F2007E297F29F20BCD
:101300007D298229832984298B17080000308312C4
:101310000313A4000030A3000030A2000030A1009D
:10132000721C93299429AB297608A1077708031129
:101330000318013E03199D29A20778080311031819
:10134000013E0319A429A307790803110318013EDC
:101350000319AB29A4070130A0000310F60DF70D07
:10136000F80DF90DA00BAD2901300310F50CF40CAC
:10137000F30CF20CFF3E031DB529750874047304C9
:101380007204031DC429C52990292408F5002308E7
:10139000F4002208F3002108F20008000030831254
:1013A0000313B8000030B7000030B6000030B500BD
:1013B0003308A0003408A1000230A2003530A30099
:1013C0000030A4000A128A1127200A128A15003060
:1013D00083120313A8000030A7002730A6001030A6
:1013E000A5003808F5003708F4003608F300350882
:1013F000F2000030F9000030F8000430F700CF3080
:10140000F6000A128A1586210A128A1575088312B7
:101410000313AC007408AB007308AA007208A9009B
:101420000A128A15E5230A128A1583120313260865
:10143000B4002508B3000800F701F51F202A212A6F
:10144000282AF409F509F40A0319F50A0130F7000E
:10145000F31F2B2A2C2A312AF209F309F20A031965
:10146000F30A720873040319362A372A642A0130F2
:10147000F600432A01300310F20DF30DFF3E031D69
:101480003B2A0130F607F31F462A472A3A2A7308F7
:101490007502031D4D2A72087402031C502A512A3A
:1014A000572A7208F4027308031CF503F502013091
:1014B0000310F30CF20CFF3E031D582A0130F60214
:1014C000031D632A642A472A77080319682A692AB0
:1014D0006E2AF409F509F40A0319F50A7508F300F0
:1014E0007408F200080078080319772A782A7D2A00
:1014F0007808031D7C2A7D2A842A76080A168A1118
:101500006D270A128A15C92A7808083E84008313B9
:10151000000883120313A000840A0008A100200819
:1015200021040319942A952AB22A7808083E8400D7
:101530000008A000840A0008A100780A84000008BE
:10154000A200840A0008A3002308803AA40021080E
:10155000803A2402031DAE2A200822020318B12A71
:10156000B22AC92A780A840083130008831203135D
:10157000A0007808840000082007A100210884004A
:1015800076088000780A840001308007840A0318F6
:10159000800A0800760883120313A4007808A500C7
:1015A0007708A6000A168A1175270A128A15740888
:1015B000013E83120313A00075080318013E003E8C
:1015C000A100200884008317211C83130008A200B7
:1015D000A3010310220DF200230DF3000A168A1155
:1015E00087270A128A15831203132408A000A10179
:1015F0002008F2002108F3000A168A1187270A1230
:101600008A15831203132508A000A1012008F20007
:101610002108F3000A168A1187270A128A158312F5
:1016200003132608A000A1012008F2002108F300FE
:101630000A168A1187270A128A150A168A117E2726
:101640000A128A1500300800720884008317731C80
:10165000831380017208013EF40073080318013EF1
:10166000003EF500740884008317751C8313403016
:1016700080007208023EF40073080318013E003E29
:10168000F500740884008317751C83138001840A95
:1016900080017208043EF40073080318013E003E06
:1016A000F500740884008317751C83138001840A75
:1016B00080017208063EF40073080318013E003EE4
:1016C000F500740884008317751C83138001840A55
:1016D0008001840A8001840A800172080A3EF400B5
:1016E00073080318013E003EF50074088400831758
:1016F000751C83138001840A8001840A8001840A96
:1017000080010800F701F31F862B872B8E2BF2092F
:10171000F309F20A0319F30A0130F700F51F912BC0
:10172000922B992BF409F509F40A0319F50A0130F3
:10173000F706F801F901720873040319A02BA12B15
:10174000D62B0130F600AD2B01300310F20DF30D56
:10175000FF3E031DA52B0130F607F31FB02BB12B65
:10176000A42B01300310F80DF90DFF3E031DB22B21
:1017700073087502031DBE2B72087402031CC12B73
:10178000C22BC92B7208F4027308031CF503F5027F
:10179000781401300310F30CF20CFF3E031DCA2B2A
:1017A0000130F602031DD52BD62BB12B7708031978
:1017B000DA2BDB2BE02BF809F909F80A0319F90AEF
:1017C0007908F3007808F200080000308312031350
:1017D000B1000030B0000030AF000030AE0028088B
:1017E0002704260425040319F62BF72B422C01307D
:1017F000B200052C0130AD000310A50DA60DA70DFC
:10180000A80DAD0BFC2B0130B207A81F082C092C2A
:10181000FA2B0130AD000310AE0DAF0DB00DB10DC0
:10182000AD0B0B2C28082C02031D202C27082B02A3
:10183000031D202C26082A02031D202C250829021E
:10184000031C232C242C332C2508A9022608031C56
:10185000260FAA022708031C270FAB022808031C27
:10186000280FAC022E1401300310A80CA70CA60CF4
:10187000A50CFF3E031D342C0130B202031D412C88
:10188000422C092C3108A8003008A7002F08A60018
:101890002E08A5000800F7007F2CD330F800823016
:1018A000F900BF2CCB30F8008230F900BF2C0C308F
:1018B000F8008230F900BF2CD830F8008130F900F0
:1018C000BF2CBB30F8008230F900BF2CF230F8009A
:1018D0008130F900BF2C9930F8008230F900BF2C1C
:1018E0003C30F8008230F900BF2C2530F8008230FF
:1018F000F900BF2CAA30F8008230F900BF2C77081D
:10190000F500F601F51BF6037608003A03198C2C56
:10191000FF3A0319912C7A2C7508003A03194D2CC3
:101920007A2C7508F83A0319752C013A0319702CB2
:10193000033A03196B2C013A0319662C073A031971
:10194000612C013A03195C2C033A0319572C013A14
:101950000319522C7A2C7908FF00780884000A12A7
:101960008A1100210A128A150A128A1542210A12C6
:101970008A150130F8070318F90A0030F9077908C9
:1019800083120313FF00780884000A128A110021D1
:101990000A128A15003A031DCE2CCF2CAB2C08005E
:1019A000831203132908840083172A1C8313000859
:1019B000031DDB2CDC2CDE2CF9305A2DAC1BE12C6A
:1019C000E22CEF2C2C08803AFF0080307F02031DB0
:1019D000EB2C08302B02031CEE2CEF2CF12CFA30F0
:1019E0005A2D831203132908A0002A08A100A2017E
:1019F0002908023EA3002A080318013E003EA40065
:101A00000A128A1127200A128A15F9007908031987
:101A10000A2D0B2D0D2D79085A2D83120313290839
:101A2000023EAD002A080318013E003EAE002D081C
:101A3000840083172E1C8313FF308005840AF13045
:101A400080052C08AE002B08AD000930FF00031004
:101A5000AD0DAE0DFF0B272D2908023EAF002A0861
:101A60000318013E003EB0002F0884008317301C8D
:101A700083132D088004840A2E0880042908F400AA
:101A80002A08F500F6012908023EAD002A080318CD
:101A9000013E003EAE002D08840083172E1C8313E8
:101AA0000008F700840A0008F8000A128A15CA2202
:101AB0000A128A1508000A128A117A240A128A1553
:101AC000831203133408CF003308CE006430F200D1
:101AD0000030F3004F08F5004E08F4000A128A1592
:101AE000C8200A128A15003073020A3003197202E4
:101AF00003187B2D7C2DAE2DBB3083120313BA004F
:101B00008130BB006430F2000030F3004F08F50074
:101B10004E08F4000A128A1500210A128A15730869
:101B200083120313BD007208BC006430F200003061
:101B3000F3004F08F5004E08F4000A128A15C82079
:101B40000A128A15730883120313BF007208BE00BD
:101B50000A168A11AF270A128A15DF2D4F30831219
:101B60000313BA008130BB006430F2000030F30090
:101B70004F08F5004E08F4000A128A1500210A12D7
:101B80008A15730883120313BD007208BC00643009
:101B9000F2000030F3004F08F5004E08F4000A127E
:101BA0008A15C8200A128A15730883120313BF000E
:101BB0007208BE000A168A11AF270A128A1583120C
:101BC00003134F08CD004E08CC0008008312031306
:101BD0004B08840083174C1C831380014D080A12A4
:101BE0008A1543200A128A1583120313D800580855
:101BF0000319FB2DFC2DFE2D5808ED2E61300A1225
:101C00008A1542210A128A15831203134B08A00079
:101C10004C08A100FE30A2005F30A3000030A400F9
:101C20000A128A1127200A128A1583120313D90077
:101C3000590803191C2E1D2E1F2E5908ED2E493050
:101C40005F065430031960060319272E282E2A2E0A
:101C5000FE30ED2E4B08A0004C08A100FF30A20082
:101C60005F30A3000030A4000A128A1127200A1254
:101C70008A1583120313DA005A080319402E412EE5
:101C8000432E5A08ED2E60305F062230031960069D
:101C900003194B2E4C2E4E2EFD30ED2E4B08013EDF
:101CA000D4004C080318013E003ED50054088400BF
:101CB0008317551C83134D0880004B08F4004C0813
:101CC000F500F6010030F7008030F8000A128A159E
:101CD000CA220A128A1583120313DB005B08031958
:101CE000722E732E752E5B08ED2E4B08F4004C08F7
:101CF000F500F6012730F7004530F8000A128A1582
:101D0000CA220A128A1583120313DC005C08031925
:101D10008A2E8B2E8D2E5C08ED2E4B08A0004C08D1
:101D2000A100A2014B08023EA3004C080318013E8B
:101D3000003EA4000A128A1127200A128A15831273
:101D40000313DD005D080319A62EA72EA92E5D083A
:101D5000ED2E4B08023ED4004C080318013E003E15
:101D6000D500540884008317551C83130008D6003F
:101D7000840A0008D7002730560645300319570655
:101D80000319C32EC42EC62EFC30ED2E4B08B30013
:101D90004C08B4004F08B6004E08B5005308BA000E
:101DA0005208B9005108B8005008B7000A128A1149
:101DB0000D260A128A1583120313DE005E0803192A
:101DC000E22EE32EE52E5E08ED2E4B0884008317ED
:101DD0004C1C831301308000003008008312031371
:101DE0002608840083130008A800840A0008A900BC
:101DF0002908FF00280884000A128A1100210A120B
:101E00008A15253A031D052F062FE02F260884008A
:101E1000013083138007840A0318800AE401E50176
:101E20000030EA00FF30E600FF30E70026088400BB
:101E30000008AD00840A00088403AE002E08FF00ED
:101E40002D0884000A128A1100210A128A15643AA8
:101E500003192B2F2C2F3A2F2E08FF002D0884005A
:101E60000A128A1100210A128A15693A031D392FB4
:101E70003A2FD52F2708840083130008FF00023073
:101E800080077F0884000008AF00840A0008B000C3
:101E90000130A80028082D07AA002E08A900031861
:101EA000A90AA81BA9032908AB00260884002A0850
:101EB00080002B08840A800084032030B300B01B0C
:101EC000622F642F0130652F0030AC000130B30267
:101ED0003308A03E84000A30F2000030F3003008DE
:101EE000F5002F08F4000A128A151C220A128A151E
:101EF0007308F9007208F8000A168A11D2270A122C
:101F00008A157808303E831380000A30F2000030D2
:101F1000F300831203133008F5002F08F4000A12AF
:101F20008A1582230A128A15730883120313B000DC
:101F30007208AF002F08300403199F2FA02FA52F80
:101F40003308031DA42FA52F662F33080319A92FCB
:101F5000AA2FCE2F2C080319AE2FAF2FCE2F013072
:101F6000B3023308A03E84002D3083138000CE2FAF
:101F70003308A03E840083130008A800A9012808A4
:101F8000F6002908F7002508F8000A128A157322BE
:101F90000A128A15013083120313B3072030330667
:101FA000031DD32FD42FB82FFF2F8312031326081E
:101FB0008400013083138007840A0318800AFF2FEE
:101FC0002608840083130008A800840A0008A900DA
:101FD0002908FF00280884000A128A1100210A1229
:101FE0008A15AA00AB012A08F6002B08F70025087D
:101FF000F8000A128A1573220A128A15D52F0800D2
:102EDA00F50075080A128A1542210A168A11080095
:102EEA000A168A11E5270A168A1183160313111482
:102EFA0008000A168A11E5270A168A11831603138F
:102F0A00111508000A168A11E5270A168A1172088D
:102F1A0083120313930008008312031394161408F0
:102F2A00F039083894001330831603139300910183
:102F3A00941708008316031381128111F830810552
:102F4A008B128312031310109010CF3090058B1739
:102F5A000B1708003C3083120313C000B4013A086F
:102F6A00B5003B08B6004030B7000A128A151E2089
:102F7A000A168A110800831203139F149F18C62F7A
:102F8A00C72FC32F1E08F500831603131E08F4006B
:102F9A007508F3007408F2000800F91BD52FD62F24
:102FAA00D72FE42F780983120313A0007909A1000F
:102FBA00A00A0319A10A2008F8002108F90008004C
:102FCA00831603139119EA2FEB2FE52F1119EE2F10
:102FDA00EF2FE52F9118F22FF32FE52F1118F62F67
:102FEA00F72FE52F111AFA2FFB2FE52F1419FE2FB1
:062FFA00FF2FE52F080087
:04400E00F420FF3F5C
:00000001FF
