:060000000A128A110C280F
:10000800FE00030EF0000A08F1000A128A154B2DB3
:100018000A128A110F28FA01FB0183120313E40163
:10002800E501E601E701E801E901EA018313A030EF
:100038008400C0300A128A153D240A128A118301ED
:100048000A128A110F2D003083120313A800003002
:10005800A7007F30A600FF30A500FE30BB007F3030
:10006800BC000030BD000030BE003A08F500390879
:10007800F4003808F3003708F2000030F9000F30B8
:10008800F8004230F7004030F6000A128A11B5270E
:100098000A128A11720883120313BB077308031824
:1000A800730F57285828BC0774080318740F5D2865
:1000B8005E28BD0775080318750ABE073E08AC0020
:1000C8003D08AB003C08AA003B08A9000A128A15A3
:1000D8009A270A128A11831203132808CA002708CC
:1000E800C9002608C8002508C7003508F2003608E8
:1000F800F300F401F5014A08F9004908F800480836
:10010800F7004708F6000A128A11B5270A128A1161
:10011800750883120313A8007408A7007308A600C3
:100128007208A5000030BB002030BC004E30BD0076
:100138000030BE003508F2003608F300F401F5017E
:100148004A08F9004908F8004808F7004708F60087
:100158000A128A11B5270A128A1172088312031328
:10016800BF007308C0007408C1007508C2000130E0
:100178000310C20CC10CC00CBF0CFF3E031DBC28F1
:100188003F08BB0740080318400FCB28CC28BC0702
:1001980041080318410FD128D228BD074208031887
:1001A800420ABE073E08AC003D08AB003C08AA0066
:1001B8003B08A9000A128A159A270A128A11831283
:1001C80003132808C6002708C5002608C400250808
:1001D800C3003308063EBB0034080318013E003E46
:1001E800BC003B08840083173C1C8313470880002D
:1001F800840A48088000840A49088000840A4A085A
:1002080080003308043EBB0034080318013E003E5A
:10021800BC003B08840083173C1C83134308800000
:10022800840A440880003308063EBB0034080318DB
:10023800013E003EBC003B08840083173C1C83132E
:100248000008F200840A0008F300840A0008F40099
:10025800840A0008F5000030F9000030F80000308A
:10026800F7001930F6000A128A11B5270A128A1106
:100278008312031333080A3EBD0034080318013EF5
:10028800003EBE003D08840083173E1C831372089D
:100298008000840A73088000840A74088000840A35
:1002A800750880003308F4003408F5000530F600BE
:1002B8003308043EBB0034080318013E003EBC006E
:1002C8003B08840083173C1C83130008F700840A4A
:1002D8000008F8000A128A15E2260A128A11080094
:1002E800F700A8291130F8008330F900E82909300F
:1002F800F8008330F900E8297E30F8008230F900F0
:10030800E8294A30F8008230F900E829F930F80085
:100318008230F900E8296430F8008230F900E829D1
:10032800D730F8008230F900E829C430F80082306C
:10033800F900E8299730F8008230F900E829E83018
:10034800F8008230F900E8297708F500F601F51B76
:10035800F6037608003A0319B529FF3A0319BA29B2
:10036800A3297508003A03197629A3297508F83ACC
:1003780003199E29013A03199929033A0319942963
:10038800013A03198F29073A03198A29013A0319EF
:100398008529033A03198029013A03197B29A329DE
:1003A8007908FF00780884000A128A1100220A12CC
:1003B8008A110A128A15F9250A128A110130F807DA
:1003C8000318F90A0030F907790883120313FF00AC
:1003D800780884000A128A1100220A128A11003A47
:0A03E800031DF729F829D4290800A5
:10040000FF1B0A2A83137F1883170008840A031925
:10041000FF0A08007F087F398A000408840A03194C
:10042000FF0A82001934003400340034CF3404341D
:10043000003400340734003407340034033400340B
:10044000063400340934003438340034C034013404
:1004500000340E34013400341E3400340034FC34D3
:100460000734003400348034273445346034223477
:1004700049345434E8340334E8340334FF34FE346C
:1004800007340634053404340334023401340034B0
:100490004034403449344E344134323432343634CA
:1004A0005F344434493445345F34493444345F3430
:1004B0004D34493453344D34413454344334483446
:1004C00020340D340A3400344934323443345F3438
:1004D0005434523441344E3453344D34493453340B
:1004E000533449344F344E345F34453452345234EB
:1004F0004F34523420340D340A34003449344E34ED
:1005000041343234323436345F34543449345F3415
:10051000493444345F344D34493453344D344134D8
:1005200054344334483420340D340A3400344934CC
:100530004E34563441344C34493444345F344934B5
:10054000323443345F3441344434443452344534D7
:100550005334533420340D340A3400344234753467
:100560007334203456346F346C34743461346734EB
:1005700065343A342034253475342E3425347534BA
:1005800020340D340A3400344E344F3454345F3444
:1005900049344E3449345434493441344C34493468
:1005A0005A344534443420340D340A34003442344F
:1005B000413444345F3450344134523441344D3446
:1005C000453454344534523420340D340A34003424
:1005D00055344E344B344E344F3457344E345F34EC
:1005E0004534523452344F34523420340D340A34AA
:1005F000003443344F344E344634493447345F3446
:100600004534523452344F34523420340D340A3489
:1006100000344634413449344C3420340D340A34E7
:1006200000344F344B3420340D340A3400348312F8
:1006300003134B08840083174C1C831380014D085F
:100640000A128A15D0240A128A1183120313D800C1
:10065000580803192C2B2D2B2F2B58081E2C6130DA
:100660000A128A15F9250A128A11831203134B08FC
:10067000A0004C08A100FE30A2005F30A3000030B3
:10068000A4000A128A11E3250A128A1183120313A5
:10069000D900590803194D2B4E2B502B59081E2CED
:1006A00049305F065430031960060319582B592B43
:1006B0005B2BFE301E2C4B08A0004C08A100FF3025
:1006C000A2005F30A3000030A4000A128A11E325C3
:1006D0000A128A1183120313DA005A080319712BC4
:1006E000722B742B5A081E2C60305F0622300319BF
:1006F000600603197C2B7D2B7F2BFD301E2C4B08B5
:10070000013ED4004C080318013E003ED5005408B9
:1007100084008317551C83134D0880004B08F40098
:100720004C08F500F6010030F7008030F8000A129E
:100730008A15E2260A128A1183120313DB005B0872
:100740000319A32BA42BA62B5B081E2C4B08F4002B
:100750004C08F500F6012730F7004530F8000A1282
:100760008A15E2260A128A1183120313DC005C0840
:100770000319BB2BBC2BBE2B5C081E2C4B08A00006
:100780004C08A100A2014B08023EA3004C0803182C
:10079000013E003EA4000A128A11E3250A128A11C2
:1007A00083120313DD005D080319D72BD82BDA2B36
:1007B0005D081E2C4B08023ED4004C080318013E75
:1007C000003ED500540884008317551C831300088D
:1007D000D600840A0008D700273056064530031992
:1007E00057060319F42BF52BF72BFC301E2C4B0866
:1007F000B3004C08B4004F08B6004E08B5005308CB
:10080000BA005208B9005108B8005008B7000A12DF
:100810008A1127200A128A1183120313DE005E0850
:100820000319132C142C162C5E081E2C4B08840064
:1008300083174C1C831301308000003008008312A2
:1008400003132608840083130008A800840A000804
:10085000A9002908FF00280884000A128A11002232
:100860000A128A11253A031D362C372CEF2C260844
:100870008400013083138007840A0318800AE4018E
:10088000E5010030EA00FF30E600FF30E70026080F
:1008900084000008AC00840A00088403AD002D0821
:1008A000FF002C0884000A128A1100220A128A1101
:1008B000753A031D5C2C5D2CE42C2708840000088D
:1008C000FF00023080077F08840083130008AE0019
:1008D000840A0008AF000130A80028082C07AA00ED
:1008E0002D08A9000318A90AA81BA9032908AB0011
:1008F000260884002A0880002B08840A80008403CC
:10090000D72C2030B2000130B2023208A03E840061
:100910000A30F2000030F3002F08F5002E08F40032
:100920000A128A157F250A128A117208303E831333
:1009300080000A30F2000030F300831203132F0806
:10094000F5002E08F4000A128A15B7250A128A113A
:10095000730883120313AF007208AE002E082F0431
:100960000319B32CB42CD02C3208031DB82CB92C8D
:10097000832CD02C3208A03E840083130008A800EA
:10098000A9012808F6002908F7002508F8000A122E
:100990008A158B260A128A11013083120313B207BB
:1009A00020303206031DD52CD62CBA2C0E2D2D0846
:1009B000FF002C0884000A128A1100220A128A11F0
:1009C000753A0319812CE42C831203132608840042
:1009D000013083138007840A0318800A0E2D26082D
:1009E000840083130008A800840A0008A9002908CD
:1009F000FF00280884000A128A1100220A128A11B4
:100A0000AA00AB012A08F6002B08F7002508F80019
:100A10000A128A158B260A128A11E42C0800C630A5
:100A2000F2000030F3000A128A153C270A128A11DC
:100A30000A128A1521250A128A110A128A156F24B0
:100A40000A128A110A128A1561240A128A11831263
:100A500003138613061307140517C630CB000030A6
:100A6000CC004030CD000230CE000030CF0000304E
:100A7000D3000030D2000030D1003230D0000A1252
:100A80008A1117230A128A110A128A1174210A1272
:100A90008A11C63083120313A9000030AA00073060
:100AA000AB000030AC000A128A118C260A128A119F
:100AB0000A128A1174210A128A11C6308312031392
:100AC000A9000030AA000230AB000030AC000A12CE
:100AD0008A112A270A128A110A128A1174210A120B
:100AE0008A11C63083120313B3000030B4000A1217
:100AF0008A153D260A128A118312031334088316BD
:100B00000313C50083120313330883160313C400B1
:100B10006430F2000030F3004508F5004408F400AA
:100B20000A128A15B7250A128A117308831603134D
:100B3000C1007208C0006430F2000030F3004508C4
:100B4000F5004408F4000A128A157F250A128A115A
:100B5000730883160313C3007208C200AE308312F9
:100B60000313B9008230BA008316031341088312BD
:100B70000313BC0083160313400883120313BB0046
:100B800083160313430883120313BE008316031353
:100B9000420883120313BD000A128A157F240A1229
:100BA0008A110B3083120313E3002630E2005D301C
:100BB000E100E10BD92DE20BD92DE30BD92D712DDD
:100BC0000A128A110C288312031323088400831746
:100BD000241C83138001840A80010A128A1545248B
:100BE0000A128A11831203132008013EA50021086E
:100BF0000318013E003EA600250884008317261C2A
:100C000083130008A700A8010310270DF200280D88
:100C1000F3000A128A1557240A128A118312031349
:100C20002208A500A6012508F2002608F3000A12F2
:100C30008A1557240A128A110A128A154E240A129A
:100C40008A110A128A1545240A128A118312031383
:100C50002008013EA50021080318013E003EA60021
:100C6000250884008317261C83130008A700A80109
:100C70000310A70DA80D01302704F200003028044E
:100C8000F3000A128A1557240A128A1101300A1237
:100C90008A15F7240A128A1183120313A500A601EC
:100CA000230884008317241C831325088000840AEA
:100CB00026088000230884008317241C831300085F
:100CC000A500840A0008A6002508A600A50123089F
:100CD00084008317241C831325088000840A2608B7
:100CE000800000300A128A15F7240A128A11831232
:100CF0000313A500A601230884008317241C831373
:100D000025088004840A260880040A128A154E24C5
:100D10000A128A1100300800831203132908840084
:100D200083172A1C83130008031D972E982E9A2ED2
:100D3000F930292FAC1B9D2E9E2EAB2E2C08803A0D
:100D4000FF0080307F02031DA72E08302B02031CFA
:100D5000AA2EAB2EAD2EFA30292F831203132908A9
:100D6000A0002A08A100A2012908023EA3002A0827
:100D70000318013E003EA4000A128A11E3250A125C
:100D80008A1183120313B30033080319C82EC92E26
:100D9000CB2E3308292F2908023EAD002A0803185C
:100DA000013E003EAE002D08840083172E1C8313E5
:100DB00007308005840AFE3080052C08AE002B0821
:100DC000AD000310AD0DAE0D0310AD0DAE0D031053
:100DD000AD0DAE0D2C08B0002B08AF000630FF00A3
:100DE0000310AF0DB00DFF0BF02E2D082F04B10036
:100DF0002E083004B2002908023EAD002A0803186C
:100E0000013E003EAE002D08840083172E1C831384
:100E100031088004840A320880042908F4002A0872
:100E2000F500F6012908023EAD002A080318013E2C
:100E3000003EAE002D08840083172E1C831300088B
:100E4000F700840A0008F8000A128A15E2260A123E
:100E50008A110800831203132908840083172A1CAF
:100E600083130008031D352F362F382FF930B42F88
:100E7000AC1B3B2F3C2F492F2C08803AFF008030C1
:100E80007F02031D452F08302B02031C482F492FDA
:100E90004B2FFA30B42F831203132908A0002A081D
:100EA000A100A2012908023EA3002A080318013E5E
:100EB000003EA4000A128A11E3250A128A11F900E1
:100EC00079080319642F652F672F7908B42F8312CF
:100ED00003132908023EAD002A080318013E003E14
:100EE000AE002D08840083172E1C8313FF3080056D
:100EF000840AF13080052C08AE002B08AD000930C3
:100F0000FF000310AD0DAE0DFF0B812F2908023E2F
:100F1000AF002A080318013E003EB0002F088400ED
:100F20008317301C83132D088004840A2E08800444
:100F30002908F4002A08F500F6012908023EAD0050
:100F40002A080318013E003EAE002D0884008317D6
:100F50002E1C83130008F700840A0008F8000A1208
:100F60008A15E2260A128A11080000308312031340
:100F7000A4000030A3000030A2000030A100721CC9
:100F8000C22FC32FDA2F7608A107770803110318A1
:100F9000013E0319CC2FA207780803110318013E64
:100FA0000319D32FA307790803110318013E03196E
:100FB000DA2FA4070130A0000310F60DF70DF80D8D
:100FC000F90DA00BDC2F01300310F50CF40CF30C21
:100FD000F20CFF3E031DE42F7508740473047204C1
:100FE000031DF32FF42FBF2F2408F5002308F4006E
:0A0FF0002208F3002108F2000800B7
:10186A00F50075080A128A15F9250A128A15080060
:10187A0064008001840A04060319003404063E2C1D
:10188A000A128A1590240A128A1583160313111450
:10189A0008000A128A1590240A128A15831603135D
:1018AA00111508000A128A1590240A128A1572085C
:1018BA008312031393000800831203139416140867
:1018CA00F0390838940013308316031393009101FA
:1018DA00941708008316031381128111F8308105C9
:1018EA008B128312031310109010CF3090058B17B0
:1018FA000B1708003B30F90083120313B3013908B0
:10190A00B4003A08B5007930B6000A128A15AB2439
:10191A000A128A150800831603139119952C962C1E
:10192A00902C1119992C9A2C902C91189D2C9E2C44
:10193A00902C1118A12CA22C902C111AA52CA62C93
:10194A00902C1419A92CAA2C902C0800831203138A
:10195A003408B7003508B800BD2C3308A500373065
:10196A00A6003608A7000A128A111F240A128A152D
:10197A00831203133808FF00370884000A128A11F9
:10198A0000220A128A15003A031DCC2CCD2CB22C47
:10199A00B301B4010800F6000A128A1545240A1296
:1019AA008A157608F400F5010310740DF200750D1E
:1019BA00F3000A128A1557240A128A15831603138A
:1019CA00111BE82CE92CF02C0A128A154E240A1253
:1019DA008A150030F62C0A128A154E240A128A1524
:1019EA00F8300800F4000A128A1590240A128A159F
:1019FA008316031391150A128A1590240A128A155E
:101A0A00831203131308F200F3017208F500730836
:101A1A00F6000A128A1590240A128A157408031904
:101A2A00172D1B2D8316031391161E2D83160313D0
:101A3A0091121116750808007030831603138F046B
:101A4A008F110F14AF30831603178800890183168C
:101A5A000313071087100711871507168712071334
:101A6A00871705148514051585150512851605139E
:101A7A00851706108610061186110612861206139D
:101A8A008613831203138612061208008B1E4E2D2C
:101A9A004F2D782D0B1D522D532D782D0130FA071D
:101AAA000318FB0A0030FB070F307B024230031990
:101ABA007A02031C612D622D772D831203136808A5
:101ACA0069040319692D6A2D6F2D86150611E8011F
:101ADA00E901752D861106150130E8000030E9008C
:101AEA00FA01FB010B1171088A00700E8300FE0EC9
:101AFA007E0E0900720873040319842D852DB22DF8
:101B0A000130F600912D01300310F20DF30DFF3E66
:101B1A00031D892D0130F607F31F942D952D882D6D
:101B2A0073087502031D9B2D72087402031C9E2DF7
:101B3A009F2DA52D7208F4027308031CF503F50204
:101B4A0001300310F30CF20CFF3E031DA62D0130E9
:101B5A00F602031DB12DB22D952D7508F3007408F8
:101B6A00F2000800F701F801720873040319BE2D88
:101B7A00BF2DF42D0130F600CB2D01300310F20DEC
:101B8A00F30DFF3E031DC32D0130F607F31FCE2DC3
:101B9A00CF2DC22D01300310F70DF80DFF3E031DA6
:101BAA00D02D73087502031DDC2D72087402031C04
:101BBA00DF2DE02DE72D7208F4027308031CF503EC
:101BCA00F502771401300310F30CF20CFF3E031DEB
:101BDA00E82D0130F602031DF32DF42DCF2D7808E0
:101BEA00F3007708F2000800F3008B138312031343
:101BFA000512ED30F200012E022EF20B002E052EF8
:101C0A00062E072EF4010130F200740A0E2E03107C
:101C1A00F20DFF3E031D0C2E720873050319162ED2
:101C2A00172E1B2E8312031305161E2E831203135F
:101C3A000512ED30F200212E222EF20B202E252E37
:101C4A00262E272E0130F40708307402031C2E2E8C
:101C5A002F2E082E831203130516ED30F200352EAF
:101C6A00362EF20B342E392E3A2E3B2E8B170800C5
:101C7A00003083120313B8000030B7000030B600FA
:101C8A000030B5003308A0003408A1000230A200D9
:101C9A003530A3000030A4000A128A11E3250A1283
:101CAA008A15003083120313A8000030A7002730DA
:101CBA00A6001030A5003808F5003708F4003608E9
:101CCA00F3003508F2000030F9000030F800043063
:101CDA00F700CF30F6000A128A11B5270A128A15C0
:101CEA00750883120313AC007408AB007308AA00CA
:101CFA007208A9000A128A159A270A128A158312EB
:101D0A0003132608B4002508B3000800780803194D
:101D1A008F2E902E952E7808031D942E952E9C2E8C
:101D2A0076080A128A1535240A128A15E12E7808CD
:101D3A00083E84008313000883120313A000840A58
:101D4A000008A100200821040319AC2EAD2ECA2ECA
:101D5A007808083E84000008A000840A0008A10050
:101D6A00780A84000008A200840A0008A300230855
:101D7A00803AA4002108803A2402031DC62E2008B6
:101D8A0022020318C92ECA2EE12E780A8400831370
:101D9A00000883120313A0007808840000082007B3
:101DAA00A1002108840076088000780A84000130A6
:101DBA008007840A0318800A08007608831203132E
:101DCA00A4007808A5007708A6000A128A154524F7
:101DDA000A128A157408013E83120313A0007508BB
:101DEA000318013E003EA100200884008317211C2D
:101DFA0083130008A200A3010310220DF200230D91
:101E0A00F3000A128A1557240A128A158312031339
:101E1A002408A000A1012008F2002108F3000A12F8
:101E2A008A1557240A128A15831203132508A0005B
:101E3A00A1012008F2002108F3000A128A1557248A
:101E4A000A128A15831203132608A000A10120088A
:101E5A00F2002108F3000A128A1557240A128A1579
:101E6A000A128A154E240A128A15003008007208CE
:101E7A0084008317731C831380017208013EF400E7
:101E8A0073080318013E003EF500740884008317A6
:101E9A00751C8313403080007208023EF4007308F8
:101EAA000318013E003EF500740884008317751C70
:101EBA0083138001840A80017208043EF4007308C7
:101ECA000318013E003EF500740884008317751C50
:101EDA0083138001840A80017208063EF4007308A5
:101EEA000318013E003EF500740884008317751C30
:101EFA0083138001840A8001840A8001840A800194
:101F0A0072080A3EF40073080318013E003EF50009
:101F1A00740884008317751C83138001840A800166
:101F2A00840A8001840A80010800003083120313A6
:101F3A00B1000030B0000030AF000030AE00280819
:101F4A002704260425040319AB2FAC2FF72F0130E1
:101F5A00B200BA2F0130AD000310A50DA60DA70DD2
:101F6A00A80DAD0BB12F0130B207A81FBD2FBE2F90
:101F7A00AF2F0130AD000310AE0DAF0DB00DB10D96
:101F8A00AD0BC02F28082C02031DD52F27082B02C2
:101F9A00031DD52F26082A02031DD52F250829023D
:101FAA00031CD82FD92FE82F2508A9022608031CBD
:101FBA00260FAA022708031C270FAB022808031CB6
:101FCA00280FAC022E1401300310A80CA70CA60C83
:101FDA00A50CFF3E031DE92F0130B202031DF62FA7
:101FEA00F72FBE2F3108A8003008A7002F08A60037
:061FFA002E08A5000800FE
:04400E00F420FF3F5C
:00000001FF
