:060000000A128A110C280F
:10000800FE00030EF0000A08F1000A128A15C4293E
:100018000A128A110F28FA01FB0183120313E40163
:10002800E501E601E701E801E901EA018313A030EF
:100038008400C0300A128A15B0200A128A1183017E
:100048000A128A112728C630F2000030F3000A127B
:100058008A119D250A128A110A128A11CF270A12BB
:100068008A110A128A15E2200A128A110A128A15BE
:10007800D4200A128A118312031386130613071455
:100088000517C630CB000030CC004030CD00023020
:10009800CE000030CF000030D3000030D200003056
:1000A800D1003230D0000A128A15F8260A128A11B5
:1000B8000A128A155A240A128A11C63083120313A7
:1000C800A9000030AA000730AB000030AC000A12CB
:1000D8008A156A250A128A110A128A155A240A12DE
:1000E8008A11C63083120313A9000030AA00023017
:1000F800AB000030AC000A128A15DF240A128A11FC
:100108000A128A155A240A128A110A128A153021EB
:100118000A128A11C63083120313B3000030B400E8
:100128000A128A15F5220A128A1183120313340857
:1001380083160313C10083120313330883160313B2
:10014800C0000A128A11BD220A128A1183120313EF
:10015800340883160313C500831203133308831668
:100168000313C40044084002C2004508031C450AA2
:100178004102C3000E3083120313B9008730BA005E
:1001880083160313430883120313BC008316031357
:10019800420883120313BB000A128A15F2200A12BE
:1001A8008A11043083120313B9008730BA0083160A
:1001B8000313450883120313BC0083160313440872
:1001C80083120313BB000A128A15F2200A128A113D
:1001D800F83083120313B9008630BA00831603136C
:1001E800410883120313BC008316031340088312CB
:1001F8000313BB000A128A15F2200A128A11831609
:1002080003134208053E83120313E1008316031308
:1002180043080318013E003E83120313E2008316CD
:1002280003134508831203136202031D2129831651
:100238000313440883120313610203182429252990
:10024800DE29831206120B3083120313E3002630D3
:10025800E2005D30E100E10B2F29E20B2F29E30BCF
:100268002F29831203130616333083120313E30076
:10027800BB30E200DF30E100E10B4029E20B40290E
:10028800E30B4029C63083120313B3000030B400D7
:100298000A128A15F5220A128A11831203133408E6
:1002A80083160313C1008312031333088316031341
:1002B800C0000A128A11BD220A128A11831203137E
:1002C800340883160313C5008312031333088316F7
:1002D8000313C40044084002C2004508031C450A31
:1002E8004102C3000E3083120313B9008730BA00ED
:1002F80083160313430883120313BC0083160313E6
:10030800420883120313BB000A128A15F2200A124C
:100318008A11043083120313B9008730BA00831698
:100328000313450883120313BC0083160313440800
:1003380083120313BB000A128A15F2200A128A11CB
:10034800F83083120313B9008630BA0083160313FA
:10035800410883120313BC00831603134008831259
:100368000313BB000A128A15F2200A128A11831697
:1003780003134208053E83120313E1008316031397
:1003880043080318013E003E83120313E20062088B
:10039800831603134502031DD7298312031361082B
:1003A8008316031344020318DA29DB29252983124B
:1003B80003130616831603134408053E831203131A
:1003C800E1008316031345080318013E003E83121B
:1003D8000313E20083160313430883120313620214
:1003E800031DFC29831603134208831203136102B9
:1003F8000318FF29002A8E28831286120B308312D5
:100408000313E3002630E2005D30E100E10B0A2A25
:10041800E20B0A2AE30B0A2A8312031386163330E7
:1004280083120313E300BB30E200DF30E100E10B8D
:100438001B2AE20B1B2AE30B1B2AC6308312031369
:10044800B3000030B4000A128A15F5220A128A1184
:1004580083120313340883160313C1008312031392
:10046800330883160313C0000A128A11BD220A1228
:100478008A1183120313340883160313C5008312E9
:100488000313330883160313C40044084002C20050
:100498004508031C450A4102C3000E3083120313AA
:1004A800B9008730BA008316031343088312031375
:1004B800BC0083160313420883120313BB000A12FD
:1004C8008A15F2200A128A11043083120313B90024
:1004D8008730BA0083160313450883120313BC0040
:1004E80083160313440883120313BB000A128A15E8
:1004F800F2200A128A11F83083120313B9008630E9
:10050800BA0083160313410883120313BC00831631
:100518000313400883120313BB000A128A15F22042
:100528000A128A11831603134408053E8312031323
:10053800E1008316031345080318013E003E8312A9
:100548000313E2006208831603134302031DB22A51
:100558008312031361088316031342020318B52A92
:10056800B62A002A8312031386168E280A128A11C5
:100578000C28003083120313C2000030C100003081
:10058800C0000030BF000030C7000030C6001A307D
:10059800C500CC30C4000030BC000030BB000330C4
:1005A800BA00E830B900C3010A128A1503210A12F9
:1005B8008A11730883120313BE007208BD003D0838
:1005C800B5003E08B600B701B8013508BF073608C0
:1005D80003110318013E0319F22AC0073708031153
:1005E8000318013E0319F92AC10738080311031833
:1005F800013E0319002BC207033083120313B60010
:100608009730B500B50B062BB60B062B01308312BD
:100618000313C30732304302031C132B142BD82AAD
:100628000030A8000030A7000030A6003230A50036
:100638004208AC004108AB004008AA003F08A900E6
:100648000A128A15F4230A128A1183120313250841
:10065800C8002608C900CA01CB014B08F5004A08A2
:10066800F4004908F3004808F2000030F9000030AF
:10067800F8002730F7001030F6000A128A15AD226C
:100688000A128A11750883120313CB007408CA0072
:100698007308C9007208C8000030A8000030A7001D
:1006A8000330A600FF30A5004B08AC004A08AB0099
:1006B8004908AA004808A9000A128A15F4230A1250
:1006C8008A11831203132808CB002708CA002608BA
:1006D800C9002508C8004B08F5004A08F400490875
:1006E800F3004808F2000030F9000030F800093043
:1006F800F700C430F6000A128A15AD220A128A11D0
:10070800750883120313CB007408CA007308C90064
:100718007208C8000030A8000030A7002730A600E3
:100728001030A5004B08AC004A08AB004908AA00E5
:100738004808A9000A128A15F4230A128A1183129A
:1007480003132808CB002708CA002608C900250873
:10075800C8004708F5004608F4004508F3004408B7
:10076800F2000030F9000030F8000330F700E830FC
:10077800F6000A128A15AD220A128A117508831228
:100788000313C7007408C6007308C5007208C400C4
:100798004030B5004230B6000F30B7000030B80026
:1007A8004408B50745080318450FDB2BDC2BB607B3
:1007B80046080318460FE12BE22BB7074708031832
:1007C800470AB8073808C7003708C6003608C50002
:1007D8003508C4003C08A8003B08A7003A08A60052
:1007E8003908A5004708AC004608AB004508AA0030
:1007F8004408A9000A128A15F4230A128A118312DE
:1008080003132808C7002708C6002608C5002508BE
:10081800C4004B08F5004A08F4004908F3004808EA
:10082800F2004708F9004608F8004508F7004408B0
:10083800F6000A128A15AD220A128A117508831267
:100848000313CB007408CA007308C9007208C800F3
:100858000030A8000030A7002730A6001030A500FF
:100868004B08AC004A08AB004908AA004808A90090
:100878000A128A15F4230A128A118312031328080C
:10088800CB002708CA002608C9002508C80049085F
:10089800B4004808B3000800003083120313A8000E
:1008A8000030A7007F30A600FF30A500FE30BB0057
:1008B8007F30BC000030BD000030BE003A08F500B3
:1008C8003908F4003808F3003708F2000030F9005E
:1008D8000F30F8004230F7004030F6000A128A154F
:1008E800AD220A128A11720883120313BB07730818
:1008F8000318730F802C812CBC0774080318740F1D
:10090800862C872CBD0775080318750ABE073E0894
:10091800AC003D08AB003C08AA003B08A9000A123D
:100928008A15F4230A128A11831203132808CA00AD
:100938002708C9002608C8002508C7003508F2009E
:100948003608F300F401F5014A08F9004908F800EF
:100958004808F7004708F6000A128A15AD220A125D
:100968008A11750883120313A8007408A700730876
:10097800A6007208A5000030BB002030BC004E3035
:10098800BD000030BE003508F2003608F300F4015F
:10099800F5014A08F9004908F8004808F70047082F
:1009A800F6000A128A15AD220A128A1172088312F9
:1009B8000313BF007308C0007408C1007508C200A3
:1009C80001300310C20CC10CC00CBF0CFF3E031D4C
:1009D800E52C3F08BB0740080318400FF42CF52C02
:1009E800BC0741080318410FFA2CFB2CBD0742082D
:1009F8000318420ABE073E08AC003D08AB003C089D
:100A0800AA003B08A9000A128A15F4230A128A11BF
:100A1800831203132808C6002708C5002608C40047
:100A28002508C3003308063EBB0034080318013EFE
:100A3800003EBC003B08840083173C1C8313470816
:100A48008000840A48088000840A49088000840AD3
:100A58004A0880003308043EBB0034080318013EEE
:100A6800003EBC003B08840083173C1C83134308EA
:100A78008000840A440880003308063EBB0034081E
:100A88000318013E003EBC003B08840083173C1C51
:100A980083130008F200840A0008F300840A00089F
:100AA800F400840A0008F5000030F9000030F8006E
:100AB8000030F7001930F6000A128A15AD220A1222
:100AC8008A118312031333080A3EBD003408031841
:100AD800013E003EBE003D08840083173E1C831380
:100AE80072088000840A73088000840A74088000F1
:100AF800840A750880003308F4003408F5000530CE
:100B0800F6003308043EBB0034080318013E003EDB
:100B1800BC003B08840083173C1C83130008F700C3
:100B2800840A0008F8000A128A159A230A128A1100
:100B38000800720884008317731C831380017208ED
:100B4800013EF40073080318013E003EF5007408E6
:100B580084008317751C8313403080007208023E9E
:100B6800F40073080318013E003EF5007408840081
:100B78008317751C83138001840A80017208043E60
:100B8800F40073080318013E003EF5007408840061
:100B98008317751C83138001840A80017208063E3E
:100BA800F40073080318013E003EF5007408840041
:100BB8008317751C83138001840A8001840A8001CD
:100BC800840A800172080A3EF40073080318013E83
:100BD800003EF500740884008317751C8313800198
:0E0BE800840A8001840A8001840A80010800CA
:100C0000FF1B0A2E83137F1883170008840A031919
:100C1000FF0A08007F087F398A000408840A031944
:100C2000FF0A8200C434093400340034193400341B
:100C300000340034CF34043400340034073400343A
:100C400007340034033400340634003409340034EB
:100C500038340034C034013400340E3401340034EC
:100C60001E3400340034FC34073400340034803443
:100C7000273445346034223449345434E83403345E
:100C8000E83403343234FF34FE3407340634053498
:100C900004340334023401340034403440344934E1
:100CA0004E3441343234323436345F34443449348F
:100CB00045345F34493444345F344D34493453341B
:100CC0004D34413454344334483420340D340A34E0
:100CD00000344934323443345F3454345234413470
:100CE0004E3453344D3449345334533449344F34EF
:100CF0004E345F344534523452344F3452342034FD
:100D00000D340A34003449344E34413432343234F0
:100D100036345F34543449345F34493444345F34B6
:100D20004D34493453344D344134543443344834CD
:100D300020340D340A34003449344E3456344134AE
:100D40004C34493444345F344934323443345F34AE
:100D500041344434443452344534533453342034CD
:100D60000D340A3400344E344F3454345F34493433
:100D70004E3449345434493441344C3449345A346F
:100D80004534443420340D340A3400344234413480
:100D900044345F3450344134523441344D3445345A
:100DA00054344534523420340D340A34003455342C
:100DB0004E344B344E344F3457344E345F34453414
:100DC000523452344F34523420340D340A34003407
:100DD00043344F344E344634493447345F34453419
:100DE000523452344F34523420340D340A340034E7
:100DF0004234553453343A342534753420340D3468
:100E00000A340D340A3400343134323456343A342E
:100E10002534753420340D340A34003432343434FB
:100E200056343A342534753420340D340A340034C1
:100E30004634413449344C3420340D340A340034BF
:100E40004F344B3420340D340A34003483120313EE
:100E5000230884008317241C83138001840A8001E3
:100E60000A128A15B8200A128A1183120313200865
:100E7000013EA50021080318013E003EA6002508FA
:100E800084008317261C83130008A700A801031001
:100E9000270DF200280DF3000A128A15CA200A1243
:100EA0008A11831203132208A500A6012508F20067
:100EB0002608F3000A128A15CA200A128A110A1299
:100EC0008A15C1200A128A110A128A15B8200A123C
:100ED0008A11831203132008013EA500210803187C
:100EE000013E003EA600250884008317261C8313BC
:100EF0000008A700A8010310A70DA80D01302704C2
:100F0000F20000302804F3000A128A15CA200A12DF
:100F10008A1101300A128A159A210A128A11831243
:100F20000313A500A601230884008317241C831340
:100F300025088000840A260880002308840083177F
:100F4000241C83130008A500840A0008A6002508B5
:100F5000A600A501230884008317241C83132508F9
:100F60008000840A2608800000300A128A159A211F
:100F70000A128A1183120313A500A6012308840014
:100F80008317241C831325088004840A2608800400
:100F90000A128A15C1200A128A1100300800703026
:100FA000831603138F048F110F14AF3083160317AA
:100FB000880089018316031307108710071187150E
:100FC000071687120713871705148514051585154D
:100FD0000512851605138517061086100611861151
:100FE000061286120613861383120313861606163C
:020FF0000800F7
:10115000F50075080A128A1530220A128A1508004D
:1011600064008001840A0406031900340406B128CF
:101170000A128A1515210A128A15831603131114EF
:1011800008000A128A1515210A128A1583160313FC
:10119000111508000A128A1515210A128A157208FB
:1011A0008312031393000800831203139416140888
:1011B000F03908389400133083160313930091011B
:1011C000941708008316031381128111F8308105EA
:1011D0008B128312031310109010CF3090058B17D1
:1011E0000B1708003B30F90083120313B3013908D1
:1011F000B4003A08B5007930B6000A128A154E21BB
:101200000A128A150800831203139F149F180929D4
:101210000A2906291E08F500831603131E08F40088
:101220007508F3007408F20008008316031391197F
:101230001A291B29152911191E291F291529911849
:101240002229232915291118262927291529111A98
:101250002A292B29152914192E292F291529080087
:10126000831203131F083F3980389F00831603132E
:101270001F169F12C330831203139F050630F3001D
:101280003030F200F20B4229F30B422900008316A2
:1012900003139F17831203131F14080083120313F1
:1012A0003408B7003508B80060293308A500373086
:1012B000A6003608A7000A128A1508260A128A15FF
:1012C000831203133808FF00370884000A128A11BA
:1012D00000260A128A15003A031D6F297029552924
:1012E000B301B4010800F6000A128A15B8200A12E8
:1012F0008A157608F400F5010310740DF200750DDF
:10130000F3000A128A15CA200A128A1583160313DB
:10131000111B8B298C2993290A128A15C1200A12C4
:101320008A15003099290A128A15C1200A128A15D5
:10133000F8300800F4000A128A1515210A128A15DD
:101340008316031391150A128A1515210A128A159C
:10135000831203131308F200F3017208F5007308F7
:10136000F6000A128A1515210A128A157408031943
:10137000BA29BE29831603139116C12983160313B4
:1013800091121116750808008B1EC729C829F1296A
:101390000B1DCB29CC29F1290130FA070318FB0AD0
:1013A0000030FB070F307B02423003197A02031C26
:1013B000DA29DB29F0298312031368086904031969
:1013C000E229E329E82986150611E801E901EE2959
:1013D000861106150130E8000030E900FA01FB0132
:1013E0000B1171088A00700E8300FE0E7E0E09003C
:1013F000720873040319FD29FE292B2A0130F60017
:101400000A2A01300310F20DF30DFF3E031D022ADC
:101410000130F607F31F0D2A0E2A012A7308750200
:10142000031D142A72087402031C172A182A1E2A84
:101430007208F4027308031CF503F502013003106F
:10144000F30CF20CFF3E031D1F2A0130F602031DB0
:101450002A2A2B2A0E2A7508F3007408F2000800C5
:10146000F3008B13831203130512A630F200382AFF
:10147000F20B372A0000F4010130F200740A422A0C
:101480000310F20DFF3E031D402A72087305031975
:101490004A2A4B2A4F2A831203130516522A831213
:1014A00003130512A630F200552AF20B542A00004D
:1014B0000130F40708307402031C5F2A602A3C2ABA
:1014C000831203130516A630F200662AF20B652A72
:1014D00000008B170800F701F80172087304031964
:1014E000722A732AA82A0130F6007F2A01300310DD
:1014F000F20DF30DFF3E031D772A0130F607F31FAF
:10150000822A832A762A01300310F70DF80DFF3E58
:10151000031D842A73087502031D902A7208740241
:10152000031C932A942A9B2A7208F4027308031C52
:10153000F503F502771401300310F30CF20CFF3EB3
:10154000031D9C2A0130F602031DA72AA82A832A1C
:101550007808F3007708F2000800003083120313C4
:10156000A4000030A3000030A2000030A100721CD3
:10157000BA2ABB2AD22A7608A107770803110318D2
:10158000013E0319C42AA207780803110318013E7B
:101590000319CB2AA307790803110318013E031985
:1015A000D22AA4070130A0000310F60DF70DF80DA4
:1015B000F90DA00BD42A01300310F50CF40CF30C38
:1015C000F20CFF3E031DDC2A7508740473047204D8
:1015D000031DEB2AEC2AB72A2408F5002308F4009F
:1015E0002208F3002108F2000800003083120313E0
:1015F000B8000030B7000030B6000030B500330846
:10160000A0003408A1000230A2003530A300003051
:10161000A4000A128A1126270A128A1500308312A2
:101620000313A8000030A7002730A6001030A50043
:101630003808F5003708F4003608F3003508F200E2
:101640000030F9000030F8000430F700CF30F60029
:101650000A128A15AD220A128A157508831203131D
:10166000AC007408AB007308AA007208A9000A1243
:101670008A15F4230A128A15831203132608B4006C
:101680002508B300080078080319472B482B4D2B79
:101690007808031D4C2B4D2B542B76080A128A1503
:1016A000A8200A128A15992B7808083E8400831313
:1016B000000883120313A000840A0008A100200878
:1016C00021040319642B652B822B7808083E8400C3
:1016D0000008A000840A0008A100780A840000081D
:1016E000A200840A0008A3002308803AA40021086D
:1016F000803A2402031D7E2B200822020318812B2E
:10170000822B992B780A8400831300088312031319
:10171000A0007808840000082007A10021088400A8
:1017200076088000780A840001308007840A031854
:10173000800A0800760883120313A4007808A50025
:101740007708A6000A128A15B8200A128A157408AA
:10175000013E83120313A00075080318013E003EEA
:10176000A100200884008317211C83130008A20015
:10177000A3010310220DF200230DF3000A128A15B3
:10178000CA200A128A15831203132408A000A1019B
:101790002008F2002108F3000A128A15CA200A1252
:1017A0008A15831203132508A000A1012008F20066
:1017B0002108F3000A128A15CA200A128A15831218
:1017C00003132608A000A1012008F2002108F3005D
:1017D0000A128A15CA200A128A150A128A15C1200D
:1017E0000A128A1500300800003083120313B1007A
:1017F0000030B0000030AF000030AE0028082704F1
:10180000260425040319052C062C512C0130B200A6
:10181000142C0130AD000310A50DA60DA70DA80DC9
:10182000AD0B0B2C0130B207A81F172C182C092C5C
:101830000130AD000310AE0DAF0DB00DB10DAD0B0D
:101840001A2C28082C02031D2F2C27082B02031DFD
:101850002F2C26082A02031D2F2C25082902031CE1
:10186000322C332C422C2508A9022608031C260FF3
:10187000AA022708031C270FAB022808031C280F05
:10188000AC022E1401300310A80CA70CA60CA50C5A
:10189000FF3E031D432C0130B202031D502C512C7E
:1018A000182C3108A8003008A7002F08A6002E0821
:1018B000A5000800F7008E2C2030F8008730F900D2
:1018C000CE2C1830F8008730F900CE2C8330F80089
:1018D0008630F900CE2C4F30F8008630F900CE2C3F
:1018E000E830F8008630F900CE2C6930F8008630F8
:1018F000F900CE2CC630F8008630F900CE2CB3307B
:10190000F8008630F900CE2C9C30F8008630F900C3
:10191000CE2CD730F8008630F900CE2C7708F500B1
:10192000F601F51BF6037608003A03199B2CFF3AE3
:101930000319A02C892C7508003A03195C2C892CFA
:101940007508F83A0319842C013A03197F2C033ADD
:1019500003197A2C013A0319752C073A0319702CD4
:10196000013A03196B2C033A0319662C013A031947
:10197000612C892C7908FF00780884000A128A11EA
:1019800000260A128A150A128A1530220A128A15AE
:101990000130F8070318F90A0030F90779088312B3
:1019A0000313FF00780884000A128A1100260A1225
:1019B0008A15003A031DDD2CDE2CBA2C0800831298
:1019C00003132908840083172A1C83130008031DAE
:1019D000EA2CEB2CED2CF930692DAC1BF02CF12C02
:1019E000FE2C2C08803AFF0080307F02031DFA2C69
:1019F00008302B02031CFD2CFE2C002DFA30692D23
:101A0000831203132908A0002A08A100A2012908B3
:101A1000023EA3002A080318013E003EA4000A1259
:101A20008A1126270A128A15F90079080319192D37
:101A30001A2D1C2D7908692D831203132908023EE3
:101A4000AD002A080318013E003EAE002D088400B8
:101A500083172E1C8313FF308005840AF130800524
:101A60002C08AE002B08AD000930FF000310AD0DAF
:101A7000AE0DFF0B362D2908023EAF002A080318D1
:101A8000013E003EB0002F0884008317301C8313F2
:101A90002D088004840A2E0880042908F4002A08EE
:101AA000F500F6012908023EAD002A080318013EA0
:101AB000003EAE002D08840083172E1C83130008FF
:101AC000F700840A0008F8000A128A159A230A12FD
:101AD0008A150800831203132908840083172A1C1F
:101AE00083130008031D752D762D782DF930072EF0
:101AF000AC1B7B2D7C2D892D2C08803AFF0080307B
:101B00007F02031D852D08302B02031C882D892D93
:101B10008B2DFA30072E831203132908A0002A0800
:101B2000A100A2012908023EA3002A080318013ED1
:101B3000003EA4000A128A1126270A128A1583126F
:101B40000313B30033080319A62DA72DA92D3308BD
:101B5000072E2908023EAD002A080318013E003E68
:101B6000AE002D08840083172E1C831307308005D8
:101B7000840AFE3080052C08AE002B08AD0003104F
:101B8000AD0DAE0D0310AD0DAE0D0310AD0DAE0DD0
:101B90002C08B0002B08AF000630FF000310AF0D7B
:101BA000B00DFF0BCE2D2D082F04B1002E083004F0
:101BB000B2002908023EAD002A080318013E003E8B
:101BC000AE002D08840083172E1C83133108800477
:101BD000840A320880042908F4002A08F500F60176
:101BE0002908023EAD002A080318013E003EAE005F
:101BF0002D08840083172E1C83130008F700840A25
:101C00000008F8000A128A159A230A128A15080099
:101C1000831203132608840083130008A800840A93
:101C20000008A9002908FF00280884000A128A1168
:101C300000260A128A15253A031D1F2E202ED82EA3
:101C400026088400013083138007840A0318800A61
:101C5000E401E5010030EA00FF30E600FF30E70074
:101C6000260884000008AC00840A00088403AD0044
:101C70002D08FF002C0884000A128A1100260A127F
:101C80008A15753A031D452E462ECD2E2708840051
:101C90000008FF00023080077F08840083130008DB
:101CA000AE00840A0008AF000130A80028082C0705
:101CB000AA002D08A9000318A90AA81BA90329082E
:101CC000AB00260884002A0880002B08840A8000C4
:101CD0008403C02E2030B2000130B2023208A03E90
:101CE00084000A30F2000030F3002F08F5002E08BF
:101CF000F4000A128A15F8210A128A157208303E79
:101D0000831380000A30F2000030F30083120313C3
:101D10002F08F5002E08F4000A128A156B220A1209
:101D20008A15730883120313AF007208AE002E08E1
:101D30002F0403199C2E9D2EB92E3208031DA12EAF
:101D4000A22E6C2EB92E3208A03E84008313000808
:101D5000A800A9012808F6002908F7002508F800BE
:101D60000A128A1543230A128A15013083120313BB
:101D7000B20720303206031DBE2EBF2EA32EF72E33
:101D80002D08FF002C0884000A128A1100260A126E
:101D90008A15753A03196A2ECD2E8312031326086D
:101DA0008400013083138007840A0318800AF72E09
:101DB0002608840083130008A800840A0008A900EC
:101DC0002908FF00280884000A128A1100260A1236
:101DD0008A15AA00AB012A08F6002B08F70025088F
:101DE000F8000A128A1543230A128A15CD2E08001C
:101DF000831203134B08840083174C1C8313800148
:101E00004D080A128A1573210A128A1583120313C8
:101E1000D800580803190D2F0E2F102F5808FF2F28
:101E200061300A128A1530220A128A1583120313AE
:101E30004B08A0004C08A100FE30A2005F30A300B8
:101E40000030A4000A128A1126270A128A1583126A
:101E50000313D900590803192E2F2F2F312F59089A
:101E6000FF2F49305F065430031960060319392FDC
:101E70003A2F3C2FFE30FF2F4B08A0004C08A1004A
:101E8000FF30A2005F30A3000030A4000A128A11C4
:101E900026270A128A1583120313DA005A08031937
:101EA000522F532F552F5A08FF2F60305F062230D4
:101EB0000319600603195D2F5E2F602FFD30FF2F81
:101EC0004B08013ED4004C080318013E003ED500EB
:101ED000540884008317551C83134D0880004B0859
:101EE000F4004C08F500F6010030F7008030F800EF
:101EF0000A128A159A230A128A1583120313DB0029
:101F00005B080319842F852F872F5B08FF2F4B0851
:101F1000F4004C08F500F6012730F7004530F800D2
:101F20000A128A159A230A128A1583120313DC00F7
:101F30005C0803199C2F9D2F9F2F5C08FF2F4B08D7
:101F4000A0004C08A100A2014B08023EA3004C08CF
:101F50000318013E003EA4000A128A1126270A1225
:101F60008A1583120313DD005D080319B82FB92FFA
:101F7000BB2F5D08FF2F4B08023ED4004C0803180E
:101F8000013E003ED500540884008317551C83137E
:101F90000008D600840A0008D700273056064530CE
:101FA000031957060319D52FD62FD82FFC30FF2F32
:101FB0004B08B3004C08B4004F08B6004E08B500FB
:101FC0005308BA005208B9005108B8005008B700C9
:101FD0000A128A1150240A128A1583120313DE0092
:101FE0005E080319F42FF52FF72F5E08FF2F4B081B
:101FF000840083174C1C83130130800000300800DC
:04400E00F420FF3F5C
:00000001FF
